{"contracts/MultiSig.sol":{"MultiSig":{"abi":[{"inputs":[],"stateMutability":"nonpayable","type":"constructor"},{"anonymous":false,"inputs":[{"indexed":false,"internalType":"uint8","name":"version","type":"uint8"}],"name":"Initialized","type":"event"},{"anonymous":false,"inputs":[{"indexed":true,"internalType":"address","name":"previousOwner","type":"address"},{"indexed":true,"internalType":"address","name":"newOwner","type":"address"}],"name":"OwnershipTransferred","type":"event"},{"inputs":[{"internalType":"address payable","name":"destination","type":"address"},{"internalType":"uint256","name":"value","type":"uint256"},{"internalType":"bytes","name":"data","type":"bytes"}],"name":"addTransaction","outputs":[{"internalType":"uint256","name":"","type":"uint256"}],"stateMutability":"nonpayable","type":"function"},{"inputs":[{"internalType":"uint256","name":"transactionId","type":"uint256"}],"name":"confirmTransaction","outputs":[],"stateMutability":"nonpayable","type":"function"},{"inputs":[{"internalType":"uint256","name":"","type":"uint256"},{"internalType":"address","name":"","type":"address"}],"name":"confirmations","outputs":[{"internalType":"bool","name":"","type":"bool"}],"stateMutability":"view","type":"function"},{"inputs":[{"internalType":"uint256","name":"transactionId","type":"uint256"}],"name":"executeTransaction","outputs":[],"stateMutability":"nonpayable","type":"function"},{"inputs":[{"internalType":"uint256","name":"transactionId","type":"uint256"}],"name":"getConfirmationsCount","outputs":[{"internalType":"uint256","name":"","type":"uint256"}],"stateMutability":"view","type":"function"},{"inputs":[{"internalType":"address[]","name":"_owners","type":"address[]"},{"internalType":"uint256","name":"_confirmations","type":"uint256"}],"name":"initialize","outputs":[],"stateMutability":"nonpayable","type":"function"},{"inputs":[{"internalType":"uint256","name":"transactionId","type":"uint256"}],"name":"isConfirmed","outputs":[{"internalType":"bool","name":"","type":"bool"}],"stateMutability":"view","type":"function"},{"inputs":[],"name":"owner","outputs":[{"internalType":"address","name":"","type":"address"}],"stateMutability":"view","type":"function"},{"inputs":[{"internalType":"uint256","name":"","type":"uint256"}],"name":"owners","outputs":[{"internalType":"address","name":"","type":"address"}],"stateMutability":"view","type":"function"},{"inputs":[],"name":"renounceOwnership","outputs":[],"stateMutability":"nonpayable","type":"function"},{"inputs":[],"name":"required","outputs":[{"internalType":"uint256","name":"","type":"uint256"}],"stateMutability":"view","type":"function"},{"inputs":[{"internalType":"address payable","name":"dest","type":"address"},{"internalType":"uint256","name":"value","type":"uint256"},{"internalType":"bytes","name":"data","type":"bytes"}],"name":"submitTransaction","outputs":[],"stateMutability":"nonpayable","type":"function"},{"inputs":[],"name":"transactionCount","outputs":[{"internalType":"uint256","name":"","type":"uint256"}],"stateMutability":"view","type":"function"},{"inputs":[{"internalType":"uint256","name":"","type":"uint256"}],"name":"transactions","outputs":[{"internalType":"address payable","name":"destination","type":"address"},{"internalType":"uint256","name":"value","type":"uint256"},{"internalType":"bool","name":"executed","type":"bool"},{"internalType":"bytes","name":"data","type":"bytes"}],"stateMutability":"view","type":"function"},{"inputs":[{"internalType":"address","name":"newOwner","type":"address"}],"name":"transferOwnership","outputs":[],"stateMutability":"nonpayable","type":"function"},{"stateMutability":"payable","type":"receive"}],"devdoc":{"author":"eludius18","events":{"Initialized(uint8)":{"details":"Triggered when the contract has been initialized or reinitialized."}},"kind":"dev","methods":{"owner()":{"details":"Returns the address of the current owner."},"renounceOwnership()":{"details":"Leaves the contract without owner. It will not be possible to call `onlyOwner` functions. Can only be called by the current owner. NOTE: Renouncing ownership will leave the contract without an owner, thereby disabling any functionality that is only available to the owner."},"transferOwnership(address)":{"details":"Transfers ownership of the contract to a new account (`newOwner`). Can only be called by the current owner."}},"title":"MultiSig Wallet","version":1},"evm":{"bytecode":{"linkReferences":{},"object":"608060405234801561001057600080fd5b5061001961001e565b6100dd565b600054610100900460ff161561008a5760405162461bcd60e51b815260206004820152602760248201527f496e697469616c697a61626c653a20636f6e747261637420697320696e697469604482015266616c697a696e6760c81b606482015260840160405180910390fd5b60005460ff908116146100db576000805460ff191660ff9081179091556040519081527f7f26b83ff96e1f2b6a682f133852f6798a09c465da95921460cefb38474024989060200160405180910390a15b565b611075806100ec6000396000f3fe6080604052600436106100ec5760003560e01c8063b77bf6001161008a578063dc8452cd11610059578063dc8452cd146102a9578063ec096f8d146102bf578063ee22610b146102df578063f2fde38b146102ff57600080fd5b8063b77bf60014610225578063bce800e514610249578063c01a8c8414610269578063c64274741461028957600080fd5b8063715018a6116100c6578063715018a6146101a2578063784547a7146101b75780638da5cb5b146101d75780639ace38c2146101f557600080fd5b8063025e7c27146100f85780633411c81c1461013557806360b5bb3f1461018057600080fd5b366100f357005b600080fd5b34801561010457600080fd5b50610118610113366004610b5b565b61031f565b6040516001600160a01b0390911681526020015b60405180910390f35b34801561014157600080fd5b50610170610150366004610b99565b609b60209081526000928352604080842090915290825290205460ff1681565b604051901515815260200161012c565b34801561018c57600080fd5b506101a061019b366004610bdf565b610349565b005b3480156101ae57600080fd5b506101a06104ab565b3480156101c357600080fd5b506101706101d2366004610b5b565b6104bf565b3480156101e357600080fd5b506065546001600160a01b0316610118565b34801561020157600080fd5b50610215610210366004610b5b565b6104d5565b60405161012c9493929190610caa565b34801561023157600080fd5b5061023b60985481565b60405190815260200161012c565b34801561025557600080fd5b5061023b610264366004610b5b565b610596565b34801561027557600080fd5b506101a0610284366004610b5b565b61061f565b34801561029557600080fd5b506101a06102a4366004610d18565b61066f565b3480156102b557600080fd5b5061023b60995481565b3480156102cb57600080fd5b5061023b6102da366004610d18565b61068f565b3480156102eb57600080fd5b506101a06102fa366004610b5b565b61078b565b34801561030b57600080fd5b506101a061031a366004610da1565b610842565b6097818154811061032f57600080fd5b6000918252602090912001546001600160a01b0316905081565b600054610100900460ff16158080156103695750600054600160ff909116105b806103835750303b158015610383575060005460ff166001145b6103eb5760405162461bcd60e51b815260206004820152602e60248201527f496e697469616c697a61626c653a20636f6e747261637420697320616c72656160448201526d191e481a5b9a5d1a585b1a5e995960921b60648201526084015b60405180910390fd5b6000805460ff19166001179055801561040e576000805461ff0019166101001790555b6104166108b8565b61041e6108e7565b600083511161042c57600080fd5b6000821161043957600080fd5b825182111561044757600080fd5b825161045a906097906020860190610ae1565b50609982905580156104a6576000805461ff0019169055604051600181527f7f26b83ff96e1f2b6a682f133852f6798a09c465da95921460cefb38474024989060200160405180910390a15b505050565b6104b3610916565b6104bd6000610970565b565b60006099546104cd83610596565b101592915050565b609a6020526000908152604090208054600182015460028301546003840180546001600160a01b0390941694929360ff909216929161051390610dc5565b80601f016020809104026020016040519081016040528092919081815260200182805461053f90610dc5565b801561058c5780601f106105615761010080835404028352916020019161058c565b820191906000526020600020905b81548152906001019060200180831161056f57829003601f168201915b5050505050905084565b60008060005b609754811015610618576000848152609b6020526040812060978054919291849081106105cb576105cb610dff565b60009182526020808320909101546001600160a01b0316835282019290925260400190205460ff1615610606578161060281610e2b565b9250505b8061061081610e2b565b91505061059c565b5092915050565b610628336109c2565b61063157600080fd5b6000818152609b602090815260408083203384529091529020805460ff1916600117905561065e816104bf565b1561066c5761066c8161078b565b50565b600061067d8585858561068f565b90506106888161061f565b5050505050565b60006040518060800160405280866001600160a01b0316815260200185815260200160001515815260200184848080601f01602080910402602001604051908101604052809392919081815260200183838082843760009201829052509390945250506098548152609a6020908152604091829020845181546001600160a01b0319166001600160a01b039091161781559084015160018201559083015160028201805460ff1916911515919091179055606083015190915060038201906107579082610e92565b5090505060016098600082825461076e9190610f52565b909155505060985461078290600190610f6b565b95945050505050565b610793610a2b565b61079c816104bf565b6107a557600080fd5b6000818152609a60205260408082208054600182015492519193926001600160a01b03909116916107da906003860190610f7e565b60006040518083038185875af1925050503d8060008114610817576040519150601f19603f3d011682016040523d82523d6000602084013e61081c565b606091505b505090508061082a57600080fd5b50600201805460ff1916600117905561066c60018055565b61084a610916565b6001600160a01b0381166108af5760405162461bcd60e51b815260206004820152602660248201527f4f776e61626c653a206e6577206f776e657220697320746865207a65726f206160448201526564647265737360d01b60648201526084016103e2565b61066c81610970565b600054610100900460ff166108df5760405162461bcd60e51b81526004016103e290610ff4565b6104bd610a8a565b600054610100900460ff1661090e5760405162461bcd60e51b81526004016103e290610ff4565b6104bd610aba565b6065546001600160a01b031633146104bd5760405162461bcd60e51b815260206004820181905260248201527f4f776e61626c653a2063616c6c6572206973206e6f7420746865206f776e657260448201526064016103e2565b606580546001600160a01b038381166001600160a01b0319831681179093556040519116919082907f8be0079c531659141344cd1fd0a4f28419497f9722a3daafe3b4186f6b6457e090600090a35050565b6000805b609754811015610a2257826001600160a01b0316609782815481106109ed576109ed610dff565b6000918252602090912001546001600160a01b031603610a105750600192915050565b80610a1a81610e2b565b9150506109c6565b50600092915050565b600260015403610a7d5760405162461bcd60e51b815260206004820152601f60248201527f5265656e7472616e637947756172643a207265656e7472616e742063616c6c0060448201526064016103e2565b6002600155565b60018055565b600054610100900460ff16610ab15760405162461bcd60e51b81526004016103e290610ff4565b6104bd33610970565b600054610100900460ff16610a845760405162461bcd60e51b81526004016103e290610ff4565b828054828255906000526020600020908101928215610b36579160200282015b82811115610b3657825182546001600160a01b0319166001600160a01b03909116178255602090920191600190910190610b01565b50610b42929150610b46565b5090565b5b80821115610b425760008155600101610b47565b600060208284031215610b6d57600080fd5b5035919050565b6001600160a01b038116811461066c57600080fd5b8035610b9481610b74565b919050565b60008060408385031215610bac57600080fd5b823591506020830135610bbe81610b74565b809150509250929050565b634e487b7160e01b600052604160045260246000fd5b60008060408385031215610bf257600080fd5b823567ffffffffffffffff80821115610c0a57600080fd5b818501915085601f830112610c1e57600080fd5b8135602082821115610c3257610c32610bc9565b8160051b604051601f19603f83011681018181108682111715610c5757610c57610bc9565b604052928352818301935084810182019289841115610c7557600080fd5b948201945b83861015610c9a57610c8b86610b89565b85529482019493820193610c7a565b9997909101359750505050505050565b60018060a01b0385168152600060208581840152841515604084015260806060840152835180608085015260005b81811015610cf45785810183015185820160a001528201610cd8565b50600060a0828601015260a0601f19601f8301168501019250505095945050505050565b60008060008060608587031215610d2e57600080fd5b8435610d3981610b74565b935060208501359250604085013567ffffffffffffffff80821115610d5d57600080fd5b818701915087601f830112610d7157600080fd5b813581811115610d8057600080fd5b886020828501011115610d9257600080fd5b95989497505060200194505050565b600060208284031215610db357600080fd5b8135610dbe81610b74565b9392505050565b600181811c90821680610dd957607f821691505b602082108103610df957634e487b7160e01b600052602260045260246000fd5b50919050565b634e487b7160e01b600052603260045260246000fd5b634e487b7160e01b600052601160045260246000fd5b600060018201610e3d57610e3d610e15565b5060010190565b601f8211156104a657600081815260208120601f850160051c81016020861015610e6b5750805b601f850160051c820191505b81811015610e8a57828155600101610e77565b505050505050565b815167ffffffffffffffff811115610eac57610eac610bc9565b610ec081610eba8454610dc5565b84610e44565b602080601f831160018114610ef55760008415610edd5750858301515b600019600386901b1c1916600185901b178555610e8a565b600085815260208120601f198616915b82811015610f2457888601518255948401946001909101908401610f05565b5085821015610f425787850151600019600388901b60f8161c191681555b5050505050600190811b01905550565b80820180821115610f6557610f65610e15565b92915050565b81810381811115610f6557610f65610e15565b6000808354610f8c81610dc5565b60018281168015610fa45760018114610fb957610fe8565b60ff1984168752821515830287019450610fe8565b8760005260208060002060005b85811015610fdf5781548a820152908401908201610fc6565b50505082870194505b50929695505050505050565b6020808252602b908201527f496e697469616c697a61626c653a20636f6e7472616374206973206e6f74206960408201526a6e697469616c697a696e6760a81b60608201526080019056fea2646970667358221220eeb67d86f3be6bac586dabf58baa6d07d8bf6e0cbe70e20cf23cbb6e5598710f64736f6c63430008140033","opcodes":"PUSH1 0x80 PUSH1 0x40 MSTORE CALLVALUE DUP1 ISZERO PUSH2 0x10 JUMPI PUSH1 0x0 DUP1 REVERT JUMPDEST POP PUSH2 0x19 PUSH2 0x1E JUMP JUMPDEST PUSH2 0xDD JUMP JUMPDEST PUSH1 0x0 SLOAD PUSH2 0x100 SWAP1 DIV PUSH1 0xFF AND ISZERO PUSH2 0x8A JUMPI PUSH1 0x40 MLOAD PUSH3 0x461BCD PUSH1 0xE5 SHL DUP2 MSTORE PUSH1 0x20 PUSH1 0x4 DUP3 ADD MSTORE PUSH1 0x27 PUSH1 0x24 DUP3 ADD MSTORE PUSH32 0x496E697469616C697A61626C653A20636F6E747261637420697320696E697469 PUSH1 0x44 DUP3 ADD MSTORE PUSH7 0x616C697A696E67 PUSH1 0xC8 SHL PUSH1 0x64 DUP3 ADD MSTORE PUSH1 0x84 ADD PUSH1 0x40 MLOAD DUP1 SWAP2 SUB SWAP1 REVERT JUMPDEST PUSH1 0x0 SLOAD PUSH1 0xFF SWAP1 DUP2 AND EQ PUSH2 0xDB JUMPI PUSH1 0x0 DUP1 SLOAD PUSH1 0xFF NOT AND PUSH1 0xFF SWAP1 DUP2 OR SWAP1 SWAP2 SSTORE PUSH1 0x40 MLOAD SWAP1 DUP2 MSTORE PUSH32 0x7F26B83FF96E1F2B6A682F133852F6798A09C465DA95921460CEFB3847402498 SWAP1 PUSH1 0x20 ADD PUSH1 0x40 MLOAD DUP1 SWAP2 SUB SWAP1 LOG1 JUMPDEST JUMP JUMPDEST PUSH2 0x1075 DUP1 PUSH2 0xEC PUSH1 0x0 CODECOPY PUSH1 0x0 RETURN INVALID PUSH1 0x80 PUSH1 0x40 MSTORE PUSH1 0x4 CALLDATASIZE LT PUSH2 0xEC JUMPI PUSH1 0x0 CALLDATALOAD PUSH1 0xE0 SHR DUP1 PUSH4 0xB77BF600 GT PUSH2 0x8A JUMPI DUP1 PUSH4 0xDC8452CD GT PUSH2 0x59 JUMPI DUP1 PUSH4 0xDC8452CD EQ PUSH2 0x2A9 JUMPI DUP1 PUSH4 0xEC096F8D EQ PUSH2 0x2BF JUMPI DUP1 PUSH4 0xEE22610B EQ PUSH2 0x2DF JUMPI DUP1 PUSH4 0xF2FDE38B EQ PUSH2 0x2FF JUMPI PUSH1 0x0 DUP1 REVERT JUMPDEST DUP1 PUSH4 0xB77BF600 EQ PUSH2 0x225 JUMPI DUP1 PUSH4 0xBCE800E5 EQ PUSH2 0x249 JUMPI DUP1 PUSH4 0xC01A8C84 EQ PUSH2 0x269 JUMPI DUP1 PUSH4 0xC6427474 EQ PUSH2 0x289 JUMPI PUSH1 0x0 DUP1 REVERT JUMPDEST DUP1 PUSH4 0x715018A6 GT PUSH2 0xC6 JUMPI DUP1 PUSH4 0x715018A6 EQ PUSH2 0x1A2 JUMPI DUP1 PUSH4 0x784547A7 EQ PUSH2 0x1B7 JUMPI DUP1 PUSH4 0x8DA5CB5B EQ PUSH2 0x1D7 JUMPI DUP1 PUSH4 0x9ACE38C2 EQ PUSH2 0x1F5 JUMPI PUSH1 0x0 DUP1 REVERT JUMPDEST DUP1 PUSH4 0x25E7C27 EQ PUSH2 0xF8 JUMPI DUP1 PUSH4 0x3411C81C EQ PUSH2 0x135 JUMPI DUP1 PUSH4 0x60B5BB3F EQ PUSH2 0x180 JUMPI PUSH1 0x0 DUP1 REVERT JUMPDEST CALLDATASIZE PUSH2 0xF3 JUMPI STOP JUMPDEST PUSH1 0x0 DUP1 REVERT JUMPDEST CALLVALUE DUP1 ISZERO PUSH2 0x104 JUMPI PUSH1 0x0 DUP1 REVERT JUMPDEST POP PUSH2 0x118 PUSH2 0x113 CALLDATASIZE PUSH1 0x4 PUSH2 0xB5B JUMP JUMPDEST PUSH2 0x31F JUMP JUMPDEST PUSH1 0x40 MLOAD PUSH1 0x1 PUSH1 0x1 PUSH1 0xA0 SHL SUB SWAP1 SWAP2 AND DUP2 MSTORE PUSH1 0x20 ADD JUMPDEST PUSH1 0x40 MLOAD DUP1 SWAP2 SUB SWAP1 RETURN JUMPDEST CALLVALUE DUP1 ISZERO PUSH2 0x141 JUMPI PUSH1 0x0 DUP1 REVERT JUMPDEST POP PUSH2 0x170 PUSH2 0x150 CALLDATASIZE PUSH1 0x4 PUSH2 0xB99 JUMP JUMPDEST PUSH1 0x9B PUSH1 0x20 SWAP1 DUP2 MSTORE PUSH1 0x0 SWAP3 DUP4 MSTORE PUSH1 0x40 DUP1 DUP5 KECCAK256 SWAP1 SWAP2 MSTORE SWAP1 DUP3 MSTORE SWAP1 KECCAK256 SLOAD PUSH1 0xFF AND DUP2 JUMP JUMPDEST PUSH1 0x40 MLOAD SWAP1 ISZERO ISZERO DUP2 MSTORE PUSH1 0x20 ADD PUSH2 0x12C JUMP JUMPDEST CALLVALUE DUP1 ISZERO PUSH2 0x18C JUMPI PUSH1 0x0 DUP1 REVERT JUMPDEST POP PUSH2 0x1A0 PUSH2 0x19B CALLDATASIZE PUSH1 0x4 PUSH2 0xBDF JUMP JUMPDEST PUSH2 0x349 JUMP JUMPDEST STOP JUMPDEST CALLVALUE DUP1 ISZERO PUSH2 0x1AE JUMPI PUSH1 0x0 DUP1 REVERT JUMPDEST POP PUSH2 0x1A0 PUSH2 0x4AB JUMP JUMPDEST CALLVALUE DUP1 ISZERO PUSH2 0x1C3 JUMPI PUSH1 0x0 DUP1 REVERT JUMPDEST POP PUSH2 0x170 PUSH2 0x1D2 CALLDATASIZE PUSH1 0x4 PUSH2 0xB5B JUMP JUMPDEST PUSH2 0x4BF JUMP JUMPDEST CALLVALUE DUP1 ISZERO PUSH2 0x1E3 JUMPI PUSH1 0x0 DUP1 REVERT JUMPDEST POP PUSH1 0x65 SLOAD PUSH1 0x1 PUSH1 0x1 PUSH1 0xA0 SHL SUB AND PUSH2 0x118 JUMP JUMPDEST CALLVALUE DUP1 ISZERO PUSH2 0x201 JUMPI PUSH1 0x0 DUP1 REVERT JUMPDEST POP PUSH2 0x215 PUSH2 0x210 CALLDATASIZE PUSH1 0x4 PUSH2 0xB5B JUMP JUMPDEST PUSH2 0x4D5 JUMP JUMPDEST PUSH1 0x40 MLOAD PUSH2 0x12C SWAP5 SWAP4 SWAP3 SWAP2 SWAP1 PUSH2 0xCAA JUMP JUMPDEST CALLVALUE DUP1 ISZERO PUSH2 0x231 JUMPI PUSH1 0x0 DUP1 REVERT JUMPDEST POP PUSH2 0x23B PUSH1 0x98 SLOAD DUP2 JUMP JUMPDEST PUSH1 0x40 MLOAD SWAP1 DUP2 MSTORE PUSH1 0x20 ADD PUSH2 0x12C JUMP JUMPDEST CALLVALUE DUP1 ISZERO PUSH2 0x255 JUMPI PUSH1 0x0 DUP1 REVERT JUMPDEST POP PUSH2 0x23B PUSH2 0x264 CALLDATASIZE PUSH1 0x4 PUSH2 0xB5B JUMP JUMPDEST PUSH2 0x596 JUMP JUMPDEST CALLVALUE DUP1 ISZERO PUSH2 0x275 JUMPI PUSH1 0x0 DUP1 REVERT JUMPDEST POP PUSH2 0x1A0 PUSH2 0x284 CALLDATASIZE PUSH1 0x4 PUSH2 0xB5B JUMP JUMPDEST PUSH2 0x61F JUMP JUMPDEST CALLVALUE DUP1 ISZERO PUSH2 0x295 JUMPI PUSH1 0x0 DUP1 REVERT JUMPDEST POP PUSH2 0x1A0 PUSH2 0x2A4 CALLDATASIZE PUSH1 0x4 PUSH2 0xD18 JUMP JUMPDEST PUSH2 0x66F JUMP JUMPDEST CALLVALUE DUP1 ISZERO PUSH2 0x2B5 JUMPI PUSH1 0x0 DUP1 REVERT JUMPDEST POP PUSH2 0x23B PUSH1 0x99 SLOAD DUP2 JUMP JUMPDEST CALLVALUE DUP1 ISZERO PUSH2 0x2CB JUMPI PUSH1 0x0 DUP1 REVERT JUMPDEST POP PUSH2 0x23B PUSH2 0x2DA CALLDATASIZE PUSH1 0x4 PUSH2 0xD18 JUMP JUMPDEST PUSH2 0x68F JUMP JUMPDEST CALLVALUE DUP1 ISZERO PUSH2 0x2EB JUMPI PUSH1 0x0 DUP1 REVERT JUMPDEST POP PUSH2 0x1A0 PUSH2 0x2FA CALLDATASIZE PUSH1 0x4 PUSH2 0xB5B JUMP JUMPDEST PUSH2 0x78B JUMP JUMPDEST CALLVALUE DUP1 ISZERO PUSH2 0x30B JUMPI PUSH1 0x0 DUP1 REVERT JUMPDEST POP PUSH2 0x1A0 PUSH2 0x31A CALLDATASIZE PUSH1 0x4 PUSH2 0xDA1 JUMP JUMPDEST PUSH2 0x842 JUMP JUMPDEST PUSH1 0x97 DUP2 DUP2 SLOAD DUP2 LT PUSH2 0x32F JUMPI PUSH1 0x0 DUP1 REVERT JUMPDEST PUSH1 0x0 SWAP2 DUP3 MSTORE PUSH1 0x20 SWAP1 SWAP2 KECCAK256 ADD SLOAD PUSH1 0x1 PUSH1 0x1 PUSH1 0xA0 SHL SUB AND SWAP1 POP DUP2 JUMP JUMPDEST PUSH1 0x0 SLOAD PUSH2 0x100 SWAP1 DIV PUSH1 0xFF AND ISZERO DUP1 DUP1 ISZERO PUSH2 0x369 JUMPI POP PUSH1 0x0 SLOAD PUSH1 0x1 PUSH1 0xFF SWAP1 SWAP2 AND LT JUMPDEST DUP1 PUSH2 0x383 JUMPI POP ADDRESS EXTCODESIZE ISZERO DUP1 ISZERO PUSH2 0x383 JUMPI POP PUSH1 0x0 SLOAD PUSH1 0xFF AND PUSH1 0x1 EQ JUMPDEST PUSH2 0x3EB JUMPI PUSH1 0x40 MLOAD PUSH3 0x461BCD PUSH1 0xE5 SHL DUP2 MSTORE PUSH1 0x20 PUSH1 0x4 DUP3 ADD MSTORE PUSH1 0x2E PUSH1 0x24 DUP3 ADD MSTORE PUSH32 0x496E697469616C697A61626C653A20636F6E747261637420697320616C726561 PUSH1 0x44 DUP3 ADD MSTORE PUSH14 0x191E481A5B9A5D1A585B1A5E9959 PUSH1 0x92 SHL PUSH1 0x64 DUP3 ADD MSTORE PUSH1 0x84 ADD JUMPDEST PUSH1 0x40 MLOAD DUP1 SWAP2 SUB SWAP1 REVERT JUMPDEST PUSH1 0x0 DUP1 SLOAD PUSH1 0xFF NOT AND PUSH1 0x1 OR SWAP1 SSTORE DUP1 ISZERO PUSH2 0x40E JUMPI PUSH1 0x0 DUP1 SLOAD PUSH2 0xFF00 NOT AND PUSH2 0x100 OR SWAP1 SSTORE JUMPDEST PUSH2 0x416 PUSH2 0x8B8 JUMP JUMPDEST PUSH2 0x41E PUSH2 0x8E7 JUMP JUMPDEST PUSH1 0x0 DUP4 MLOAD GT PUSH2 0x42C JUMPI PUSH1 0x0 DUP1 REVERT JUMPDEST PUSH1 0x0 DUP3 GT PUSH2 0x439 JUMPI PUSH1 0x0 DUP1 REVERT JUMPDEST DUP3 MLOAD DUP3 GT ISZERO PUSH2 0x447 JUMPI PUSH1 0x0 DUP1 REVERT JUMPDEST DUP3 MLOAD PUSH2 0x45A SWAP1 PUSH1 0x97 SWAP1 PUSH1 0x20 DUP7 ADD SWAP1 PUSH2 0xAE1 JUMP JUMPDEST POP PUSH1 0x99 DUP3 SWAP1 SSTORE DUP1 ISZERO PUSH2 0x4A6 JUMPI PUSH1 0x0 DUP1 SLOAD PUSH2 0xFF00 NOT AND SWAP1 SSTORE PUSH1 0x40 MLOAD PUSH1 0x1 DUP2 MSTORE PUSH32 0x7F26B83FF96E1F2B6A682F133852F6798A09C465DA95921460CEFB3847402498 SWAP1 PUSH1 0x20 ADD PUSH1 0x40 MLOAD DUP1 SWAP2 SUB SWAP1 LOG1 JUMPDEST POP POP POP JUMP JUMPDEST PUSH2 0x4B3 PUSH2 0x916 JUMP JUMPDEST PUSH2 0x4BD PUSH1 0x0 PUSH2 0x970 JUMP JUMPDEST JUMP JUMPDEST PUSH1 0x0 PUSH1 0x99 SLOAD PUSH2 0x4CD DUP4 PUSH2 0x596 JUMP JUMPDEST LT ISZERO SWAP3 SWAP2 POP POP JUMP JUMPDEST PUSH1 0x9A PUSH1 0x20 MSTORE PUSH1 0x0 SWAP1 DUP2 MSTORE PUSH1 0x40 SWAP1 KECCAK256 DUP1 SLOAD PUSH1 0x1 DUP3 ADD SLOAD PUSH1 0x2 DUP4 ADD SLOAD PUSH1 0x3 DUP5 ADD DUP1 SLOAD PUSH1 0x1 PUSH1 0x1 PUSH1 0xA0 SHL SUB SWAP1 SWAP5 AND SWAP5 SWAP3 SWAP4 PUSH1 0xFF SWAP1 SWAP3 AND SWAP3 SWAP2 PUSH2 0x513 SWAP1 PUSH2 0xDC5 JUMP JUMPDEST DUP1 PUSH1 0x1F ADD PUSH1 0x20 DUP1 SWAP2 DIV MUL PUSH1 0x20 ADD PUSH1 0x40 MLOAD SWAP1 DUP2 ADD PUSH1 0x40 MSTORE DUP1 SWAP3 SWAP2 SWAP1 DUP2 DUP2 MSTORE PUSH1 0x20 ADD DUP3 DUP1 SLOAD PUSH2 0x53F SWAP1 PUSH2 0xDC5 JUMP JUMPDEST DUP1 ISZERO PUSH2 0x58C JUMPI DUP1 PUSH1 0x1F LT PUSH2 0x561 JUMPI PUSH2 0x100 DUP1 DUP4 SLOAD DIV MUL DUP4 MSTORE SWAP2 PUSH1 0x20 ADD SWAP2 PUSH2 0x58C JUMP JUMPDEST DUP3 ADD SWAP2 SWAP1 PUSH1 0x0 MSTORE PUSH1 0x20 PUSH1 0x0 KECCAK256 SWAP1 JUMPDEST DUP2 SLOAD DUP2 MSTORE SWAP1 PUSH1 0x1 ADD SWAP1 PUSH1 0x20 ADD DUP1 DUP4 GT PUSH2 0x56F JUMPI DUP3 SWAP1 SUB PUSH1 0x1F AND DUP3 ADD SWAP2 JUMPDEST POP POP POP POP POP SWAP1 POP DUP5 JUMP JUMPDEST PUSH1 0x0 DUP1 PUSH1 0x0 JUMPDEST PUSH1 0x97 SLOAD DUP2 LT ISZERO PUSH2 0x618 JUMPI PUSH1 0x0 DUP5 DUP2 MSTORE PUSH1 0x9B PUSH1 0x20 MSTORE PUSH1 0x40 DUP2 KECCAK256 PUSH1 0x97 DUP1 SLOAD SWAP2 SWAP3 SWAP2 DUP5 SWAP1 DUP2 LT PUSH2 0x5CB JUMPI PUSH2 0x5CB PUSH2 0xDFF JUMP JUMPDEST PUSH1 0x0 SWAP2 DUP3 MSTORE PUSH1 0x20 DUP1 DUP4 KECCAK256 SWAP1 SWAP2 ADD SLOAD PUSH1 0x1 PUSH1 0x1 PUSH1 0xA0 SHL SUB AND DUP4 MSTORE DUP3 ADD SWAP3 SWAP1 SWAP3 MSTORE PUSH1 0x40 ADD SWAP1 KECCAK256 SLOAD PUSH1 0xFF AND ISZERO PUSH2 0x606 JUMPI DUP2 PUSH2 0x602 DUP2 PUSH2 0xE2B JUMP JUMPDEST SWAP3 POP POP JUMPDEST DUP1 PUSH2 0x610 DUP2 PUSH2 0xE2B JUMP JUMPDEST SWAP2 POP POP PUSH2 0x59C JUMP JUMPDEST POP SWAP3 SWAP2 POP POP JUMP JUMPDEST PUSH2 0x628 CALLER PUSH2 0x9C2 JUMP JUMPDEST PUSH2 0x631 JUMPI PUSH1 0x0 DUP1 REVERT JUMPDEST PUSH1 0x0 DUP2 DUP2 MSTORE PUSH1 0x9B PUSH1 0x20 SWAP1 DUP2 MSTORE PUSH1 0x40 DUP1 DUP4 KECCAK256 CALLER DUP5 MSTORE SWAP1 SWAP2 MSTORE SWAP1 KECCAK256 DUP1 SLOAD PUSH1 0xFF NOT AND PUSH1 0x1 OR SWAP1 SSTORE PUSH2 0x65E DUP2 PUSH2 0x4BF JUMP JUMPDEST ISZERO PUSH2 0x66C JUMPI PUSH2 0x66C DUP2 PUSH2 0x78B JUMP JUMPDEST POP JUMP JUMPDEST PUSH1 0x0 PUSH2 0x67D DUP6 DUP6 DUP6 DUP6 PUSH2 0x68F JUMP JUMPDEST SWAP1 POP PUSH2 0x688 DUP2 PUSH2 0x61F JUMP JUMPDEST POP POP POP POP POP JUMP JUMPDEST PUSH1 0x0 PUSH1 0x40 MLOAD DUP1 PUSH1 0x80 ADD PUSH1 0x40 MSTORE DUP1 DUP7 PUSH1 0x1 PUSH1 0x1 PUSH1 0xA0 SHL SUB AND DUP2 MSTORE PUSH1 0x20 ADD DUP6 DUP2 MSTORE PUSH1 0x20 ADD PUSH1 0x0 ISZERO ISZERO DUP2 MSTORE PUSH1 0x20 ADD DUP5 DUP5 DUP1 DUP1 PUSH1 0x1F ADD PUSH1 0x20 DUP1 SWAP2 DIV MUL PUSH1 0x20 ADD PUSH1 0x40 MLOAD SWAP1 DUP2 ADD PUSH1 0x40 MSTORE DUP1 SWAP4 SWAP3 SWAP2 SWAP1 DUP2 DUP2 MSTORE PUSH1 0x20 ADD DUP4 DUP4 DUP1 DUP3 DUP5 CALLDATACOPY PUSH1 0x0 SWAP3 ADD DUP3 SWAP1 MSTORE POP SWAP4 SWAP1 SWAP5 MSTORE POP POP PUSH1 0x98 SLOAD DUP2 MSTORE PUSH1 0x9A PUSH1 0x20 SWAP1 DUP2 MSTORE PUSH1 0x40 SWAP2 DUP3 SWAP1 KECCAK256 DUP5 MLOAD DUP2 SLOAD PUSH1 0x1 PUSH1 0x1 PUSH1 0xA0 SHL SUB NOT AND PUSH1 0x1 PUSH1 0x1 PUSH1 0xA0 SHL SUB SWAP1 SWAP2 AND OR DUP2 SSTORE SWAP1 DUP5 ADD MLOAD PUSH1 0x1 DUP3 ADD SSTORE SWAP1 DUP4 ADD MLOAD PUSH1 0x2 DUP3 ADD DUP1 SLOAD PUSH1 0xFF NOT AND SWAP2 ISZERO ISZERO SWAP2 SWAP1 SWAP2 OR SWAP1 SSTORE PUSH1 0x60 DUP4 ADD MLOAD SWAP1 SWAP2 POP PUSH1 0x3 DUP3 ADD SWAP1 PUSH2 0x757 SWAP1 DUP3 PUSH2 0xE92 JUMP JUMPDEST POP SWAP1 POP POP PUSH1 0x1 PUSH1 0x98 PUSH1 0x0 DUP3 DUP3 SLOAD PUSH2 0x76E SWAP2 SWAP1 PUSH2 0xF52 JUMP JUMPDEST SWAP1 SWAP2 SSTORE POP POP PUSH1 0x98 SLOAD PUSH2 0x782 SWAP1 PUSH1 0x1 SWAP1 PUSH2 0xF6B JUMP JUMPDEST SWAP6 SWAP5 POP POP POP POP POP JUMP JUMPDEST PUSH2 0x793 PUSH2 0xA2B JUMP JUMPDEST PUSH2 0x79C DUP2 PUSH2 0x4BF JUMP JUMPDEST PUSH2 0x7A5 JUMPI PUSH1 0x0 DUP1 REVERT JUMPDEST PUSH1 0x0 DUP2 DUP2 MSTORE PUSH1 0x9A PUSH1 0x20 MSTORE PUSH1 0x40 DUP1 DUP3 KECCAK256 DUP1 SLOAD PUSH1 0x1 DUP3 ADD SLOAD SWAP3 MLOAD SWAP2 SWAP4 SWAP3 PUSH1 0x1 PUSH1 0x1 PUSH1 0xA0 SHL SUB SWAP1 SWAP2 AND SWAP2 PUSH2 0x7DA SWAP1 PUSH1 0x3 DUP7 ADD SWAP1 PUSH2 0xF7E JUMP JUMPDEST PUSH1 0x0 PUSH1 0x40 MLOAD DUP1 DUP4 SUB DUP2 DUP6 DUP8 GAS CALL SWAP3 POP POP POP RETURNDATASIZE DUP1 PUSH1 0x0 DUP2 EQ PUSH2 0x817 JUMPI PUSH1 0x40 MLOAD SWAP2 POP PUSH1 0x1F NOT PUSH1 0x3F RETURNDATASIZE ADD AND DUP3 ADD PUSH1 0x40 MSTORE RETURNDATASIZE DUP3 MSTORE RETURNDATASIZE PUSH1 0x0 PUSH1 0x20 DUP5 ADD RETURNDATACOPY PUSH2 0x81C JUMP JUMPDEST PUSH1 0x60 SWAP2 POP JUMPDEST POP POP SWAP1 POP DUP1 PUSH2 0x82A JUMPI PUSH1 0x0 DUP1 REVERT JUMPDEST POP PUSH1 0x2 ADD DUP1 SLOAD PUSH1 0xFF NOT AND PUSH1 0x1 OR SWAP1 SSTORE PUSH2 0x66C PUSH1 0x1 DUP1 SSTORE JUMP JUMPDEST PUSH2 0x84A PUSH2 0x916 JUMP JUMPDEST PUSH1 0x1 PUSH1 0x1 PUSH1 0xA0 SHL SUB DUP2 AND PUSH2 0x8AF JUMPI PUSH1 0x40 MLOAD PUSH3 0x461BCD PUSH1 0xE5 SHL DUP2 MSTORE PUSH1 0x20 PUSH1 0x4 DUP3 ADD MSTORE PUSH1 0x26 PUSH1 0x24 DUP3 ADD MSTORE PUSH32 0x4F776E61626C653A206E6577206F776E657220697320746865207A65726F2061 PUSH1 0x44 DUP3 ADD MSTORE PUSH6 0x646472657373 PUSH1 0xD0 SHL PUSH1 0x64 DUP3 ADD MSTORE PUSH1 0x84 ADD PUSH2 0x3E2 JUMP JUMPDEST PUSH2 0x66C DUP2 PUSH2 0x970 JUMP JUMPDEST PUSH1 0x0 SLOAD PUSH2 0x100 SWAP1 DIV PUSH1 0xFF AND PUSH2 0x8DF JUMPI PUSH1 0x40 MLOAD PUSH3 0x461BCD PUSH1 0xE5 SHL DUP2 MSTORE PUSH1 0x4 ADD PUSH2 0x3E2 SWAP1 PUSH2 0xFF4 JUMP JUMPDEST PUSH2 0x4BD PUSH2 0xA8A JUMP JUMPDEST PUSH1 0x0 SLOAD PUSH2 0x100 SWAP1 DIV PUSH1 0xFF AND PUSH2 0x90E JUMPI PUSH1 0x40 MLOAD PUSH3 0x461BCD PUSH1 0xE5 SHL DUP2 MSTORE PUSH1 0x4 ADD PUSH2 0x3E2 SWAP1 PUSH2 0xFF4 JUMP JUMPDEST PUSH2 0x4BD PUSH2 0xABA JUMP JUMPDEST PUSH1 0x65 SLOAD PUSH1 0x1 PUSH1 0x1 PUSH1 0xA0 SHL SUB AND CALLER EQ PUSH2 0x4BD JUMPI PUSH1 0x40 MLOAD PUSH3 0x461BCD PUSH1 0xE5 SHL DUP2 MSTORE PUSH1 0x20 PUSH1 0x4 DUP3 ADD DUP2 SWAP1 MSTORE PUSH1 0x24 DUP3 ADD MSTORE PUSH32 0x4F776E61626C653A2063616C6C6572206973206E6F7420746865206F776E6572 PUSH1 0x44 DUP3 ADD MSTORE PUSH1 0x64 ADD PUSH2 0x3E2 JUMP JUMPDEST PUSH1 0x65 DUP1 SLOAD PUSH1 0x1 PUSH1 0x1 PUSH1 0xA0 SHL SUB DUP4 DUP2 AND PUSH1 0x1 PUSH1 0x1 PUSH1 0xA0 SHL SUB NOT DUP4 AND DUP2 OR SWAP1 SWAP4 SSTORE PUSH1 0x40 MLOAD SWAP2 AND SWAP2 SWAP1 DUP3 SWAP1 PUSH32 0x8BE0079C531659141344CD1FD0A4F28419497F9722A3DAAFE3B4186F6B6457E0 SWAP1 PUSH1 0x0 SWAP1 LOG3 POP POP JUMP JUMPDEST PUSH1 0x0 DUP1 JUMPDEST PUSH1 0x97 SLOAD DUP2 LT ISZERO PUSH2 0xA22 JUMPI DUP3 PUSH1 0x1 PUSH1 0x1 PUSH1 0xA0 SHL SUB AND PUSH1 0x97 DUP3 DUP2 SLOAD DUP2 LT PUSH2 0x9ED JUMPI PUSH2 0x9ED PUSH2 0xDFF JUMP JUMPDEST PUSH1 0x0 SWAP2 DUP3 MSTORE PUSH1 0x20 SWAP1 SWAP2 KECCAK256 ADD SLOAD PUSH1 0x1 PUSH1 0x1 PUSH1 0xA0 SHL SUB AND SUB PUSH2 0xA10 JUMPI POP PUSH1 0x1 SWAP3 SWAP2 POP POP JUMP JUMPDEST DUP1 PUSH2 0xA1A DUP2 PUSH2 0xE2B JUMP JUMPDEST SWAP2 POP POP PUSH2 0x9C6 JUMP JUMPDEST POP PUSH1 0x0 SWAP3 SWAP2 POP POP JUMP JUMPDEST PUSH1 0x2 PUSH1 0x1 SLOAD SUB PUSH2 0xA7D JUMPI PUSH1 0x40 MLOAD PUSH3 0x461BCD PUSH1 0xE5 SHL DUP2 MSTORE PUSH1 0x20 PUSH1 0x4 DUP3 ADD MSTORE PUSH1 0x1F PUSH1 0x24 DUP3 ADD MSTORE PUSH32 0x5265656E7472616E637947756172643A207265656E7472616E742063616C6C00 PUSH1 0x44 DUP3 ADD MSTORE PUSH1 0x64 ADD PUSH2 0x3E2 JUMP JUMPDEST PUSH1 0x2 PUSH1 0x1 SSTORE JUMP JUMPDEST PUSH1 0x1 DUP1 SSTORE JUMP JUMPDEST PUSH1 0x0 SLOAD PUSH2 0x100 SWAP1 DIV PUSH1 0xFF AND PUSH2 0xAB1 JUMPI PUSH1 0x40 MLOAD PUSH3 0x461BCD PUSH1 0xE5 SHL DUP2 MSTORE PUSH1 0x4 ADD PUSH2 0x3E2 SWAP1 PUSH2 0xFF4 JUMP JUMPDEST PUSH2 0x4BD CALLER PUSH2 0x970 JUMP JUMPDEST PUSH1 0x0 SLOAD PUSH2 0x100 SWAP1 DIV PUSH1 0xFF AND PUSH2 0xA84 JUMPI PUSH1 0x40 MLOAD PUSH3 0x461BCD PUSH1 0xE5 SHL DUP2 MSTORE PUSH1 0x4 ADD PUSH2 0x3E2 SWAP1 PUSH2 0xFF4 JUMP JUMPDEST DUP3 DUP1 SLOAD DUP3 DUP3 SSTORE SWAP1 PUSH1 0x0 MSTORE PUSH1 0x20 PUSH1 0x0 KECCAK256 SWAP1 DUP2 ADD SWAP3 DUP3 ISZERO PUSH2 0xB36 JUMPI SWAP2 PUSH1 0x20 MUL DUP3 ADD JUMPDEST DUP3 DUP2 GT ISZERO PUSH2 0xB36 JUMPI DUP3 MLOAD DUP3 SLOAD PUSH1 0x1 PUSH1 0x1 PUSH1 0xA0 SHL SUB NOT AND PUSH1 0x1 PUSH1 0x1 PUSH1 0xA0 SHL SUB SWAP1 SWAP2 AND OR DUP3 SSTORE PUSH1 0x20 SWAP1 SWAP3 ADD SWAP2 PUSH1 0x1 SWAP1 SWAP2 ADD SWAP1 PUSH2 0xB01 JUMP JUMPDEST POP PUSH2 0xB42 SWAP3 SWAP2 POP PUSH2 0xB46 JUMP JUMPDEST POP SWAP1 JUMP JUMPDEST JUMPDEST DUP1 DUP3 GT ISZERO PUSH2 0xB42 JUMPI PUSH1 0x0 DUP2 SSTORE PUSH1 0x1 ADD PUSH2 0xB47 JUMP JUMPDEST PUSH1 0x0 PUSH1 0x20 DUP3 DUP5 SUB SLT ISZERO PUSH2 0xB6D JUMPI PUSH1 0x0 DUP1 REVERT JUMPDEST POP CALLDATALOAD SWAP2 SWAP1 POP JUMP JUMPDEST PUSH1 0x1 PUSH1 0x1 PUSH1 0xA0 SHL SUB DUP2 AND DUP2 EQ PUSH2 0x66C JUMPI PUSH1 0x0 DUP1 REVERT JUMPDEST DUP1 CALLDATALOAD PUSH2 0xB94 DUP2 PUSH2 0xB74 JUMP JUMPDEST SWAP2 SWAP1 POP JUMP JUMPDEST PUSH1 0x0 DUP1 PUSH1 0x40 DUP4 DUP6 SUB SLT ISZERO PUSH2 0xBAC JUMPI PUSH1 0x0 DUP1 REVERT JUMPDEST DUP3 CALLDATALOAD SWAP2 POP PUSH1 0x20 DUP4 ADD CALLDATALOAD PUSH2 0xBBE DUP2 PUSH2 0xB74 JUMP JUMPDEST DUP1 SWAP2 POP POP SWAP3 POP SWAP3 SWAP1 POP JUMP JUMPDEST PUSH4 0x4E487B71 PUSH1 0xE0 SHL PUSH1 0x0 MSTORE PUSH1 0x41 PUSH1 0x4 MSTORE PUSH1 0x24 PUSH1 0x0 REVERT JUMPDEST PUSH1 0x0 DUP1 PUSH1 0x40 DUP4 DUP6 SUB SLT ISZERO PUSH2 0xBF2 JUMPI PUSH1 0x0 DUP1 REVERT JUMPDEST DUP3 CALLDATALOAD PUSH8 0xFFFFFFFFFFFFFFFF DUP1 DUP3 GT ISZERO PUSH2 0xC0A JUMPI PUSH1 0x0 DUP1 REVERT JUMPDEST DUP2 DUP6 ADD SWAP2 POP DUP6 PUSH1 0x1F DUP4 ADD SLT PUSH2 0xC1E JUMPI PUSH1 0x0 DUP1 REVERT JUMPDEST DUP2 CALLDATALOAD PUSH1 0x20 DUP3 DUP3 GT ISZERO PUSH2 0xC32 JUMPI PUSH2 0xC32 PUSH2 0xBC9 JUMP JUMPDEST DUP2 PUSH1 0x5 SHL PUSH1 0x40 MLOAD PUSH1 0x1F NOT PUSH1 0x3F DUP4 ADD AND DUP2 ADD DUP2 DUP2 LT DUP7 DUP3 GT OR ISZERO PUSH2 0xC57 JUMPI PUSH2 0xC57 PUSH2 0xBC9 JUMP JUMPDEST PUSH1 0x40 MSTORE SWAP3 DUP4 MSTORE DUP2 DUP4 ADD SWAP4 POP DUP5 DUP2 ADD DUP3 ADD SWAP3 DUP10 DUP5 GT ISZERO PUSH2 0xC75 JUMPI PUSH1 0x0 DUP1 REVERT JUMPDEST SWAP5 DUP3 ADD SWAP5 JUMPDEST DUP4 DUP7 LT ISZERO PUSH2 0xC9A JUMPI PUSH2 0xC8B DUP7 PUSH2 0xB89 JUMP JUMPDEST DUP6 MSTORE SWAP5 DUP3 ADD SWAP5 SWAP4 DUP3 ADD SWAP4 PUSH2 0xC7A JUMP JUMPDEST SWAP10 SWAP8 SWAP1 SWAP2 ADD CALLDATALOAD SWAP8 POP POP POP POP POP POP POP JUMP JUMPDEST PUSH1 0x1 DUP1 PUSH1 0xA0 SHL SUB DUP6 AND DUP2 MSTORE PUSH1 0x0 PUSH1 0x20 DUP6 DUP2 DUP5 ADD MSTORE DUP5 ISZERO ISZERO PUSH1 0x40 DUP5 ADD MSTORE PUSH1 0x80 PUSH1 0x60 DUP5 ADD MSTORE DUP4 MLOAD DUP1 PUSH1 0x80 DUP6 ADD MSTORE PUSH1 0x0 JUMPDEST DUP2 DUP2 LT ISZERO PUSH2 0xCF4 JUMPI DUP6 DUP2 ADD DUP4 ADD MLOAD DUP6 DUP3 ADD PUSH1 0xA0 ADD MSTORE DUP3 ADD PUSH2 0xCD8 JUMP JUMPDEST POP PUSH1 0x0 PUSH1 0xA0 DUP3 DUP7 ADD ADD MSTORE PUSH1 0xA0 PUSH1 0x1F NOT PUSH1 0x1F DUP4 ADD AND DUP6 ADD ADD SWAP3 POP POP POP SWAP6 SWAP5 POP POP POP POP POP JUMP JUMPDEST PUSH1 0x0 DUP1 PUSH1 0x0 DUP1 PUSH1 0x60 DUP6 DUP8 SUB SLT ISZERO PUSH2 0xD2E JUMPI PUSH1 0x0 DUP1 REVERT JUMPDEST DUP5 CALLDATALOAD PUSH2 0xD39 DUP2 PUSH2 0xB74 JUMP JUMPDEST SWAP4 POP PUSH1 0x20 DUP6 ADD CALLDATALOAD SWAP3 POP PUSH1 0x40 DUP6 ADD CALLDATALOAD PUSH8 0xFFFFFFFFFFFFFFFF DUP1 DUP3 GT ISZERO PUSH2 0xD5D JUMPI PUSH1 0x0 DUP1 REVERT JUMPDEST DUP2 DUP8 ADD SWAP2 POP DUP8 PUSH1 0x1F DUP4 ADD SLT PUSH2 0xD71 JUMPI PUSH1 0x0 DUP1 REVERT JUMPDEST DUP2 CALLDATALOAD DUP2 DUP2 GT ISZERO PUSH2 0xD80 JUMPI PUSH1 0x0 DUP1 REVERT JUMPDEST DUP9 PUSH1 0x20 DUP3 DUP6 ADD ADD GT ISZERO PUSH2 0xD92 JUMPI PUSH1 0x0 DUP1 REVERT JUMPDEST SWAP6 SWAP9 SWAP5 SWAP8 POP POP PUSH1 0x20 ADD SWAP5 POP POP POP JUMP JUMPDEST PUSH1 0x0 PUSH1 0x20 DUP3 DUP5 SUB SLT ISZERO PUSH2 0xDB3 JUMPI PUSH1 0x0 DUP1 REVERT JUMPDEST DUP2 CALLDATALOAD PUSH2 0xDBE DUP2 PUSH2 0xB74 JUMP JUMPDEST SWAP4 SWAP3 POP POP POP JUMP JUMPDEST PUSH1 0x1 DUP2 DUP2 SHR SWAP1 DUP3 AND DUP1 PUSH2 0xDD9 JUMPI PUSH1 0x7F DUP3 AND SWAP2 POP JUMPDEST PUSH1 0x20 DUP3 LT DUP2 SUB PUSH2 0xDF9 JUMPI PUSH4 0x4E487B71 PUSH1 0xE0 SHL PUSH1 0x0 MSTORE PUSH1 0x22 PUSH1 0x4 MSTORE PUSH1 0x24 PUSH1 0x0 REVERT JUMPDEST POP SWAP2 SWAP1 POP JUMP JUMPDEST PUSH4 0x4E487B71 PUSH1 0xE0 SHL PUSH1 0x0 MSTORE PUSH1 0x32 PUSH1 0x4 MSTORE PUSH1 0x24 PUSH1 0x0 REVERT JUMPDEST PUSH4 0x4E487B71 PUSH1 0xE0 SHL PUSH1 0x0 MSTORE PUSH1 0x11 PUSH1 0x4 MSTORE PUSH1 0x24 PUSH1 0x0 REVERT JUMPDEST PUSH1 0x0 PUSH1 0x1 DUP3 ADD PUSH2 0xE3D JUMPI PUSH2 0xE3D PUSH2 0xE15 JUMP JUMPDEST POP PUSH1 0x1 ADD SWAP1 JUMP JUMPDEST PUSH1 0x1F DUP3 GT ISZERO PUSH2 0x4A6 JUMPI PUSH1 0x0 DUP2 DUP2 MSTORE PUSH1 0x20 DUP2 KECCAK256 PUSH1 0x1F DUP6 ADD PUSH1 0x5 SHR DUP2 ADD PUSH1 0x20 DUP7 LT ISZERO PUSH2 0xE6B JUMPI POP DUP1 JUMPDEST PUSH1 0x1F DUP6 ADD PUSH1 0x5 SHR DUP3 ADD SWAP2 POP JUMPDEST DUP2 DUP2 LT ISZERO PUSH2 0xE8A JUMPI DUP3 DUP2 SSTORE PUSH1 0x1 ADD PUSH2 0xE77 JUMP JUMPDEST POP POP POP POP POP POP JUMP JUMPDEST DUP2 MLOAD PUSH8 0xFFFFFFFFFFFFFFFF DUP2 GT ISZERO PUSH2 0xEAC JUMPI PUSH2 0xEAC PUSH2 0xBC9 JUMP JUMPDEST PUSH2 0xEC0 DUP2 PUSH2 0xEBA DUP5 SLOAD PUSH2 0xDC5 JUMP JUMPDEST DUP5 PUSH2 0xE44 JUMP JUMPDEST PUSH1 0x20 DUP1 PUSH1 0x1F DUP4 GT PUSH1 0x1 DUP2 EQ PUSH2 0xEF5 JUMPI PUSH1 0x0 DUP5 ISZERO PUSH2 0xEDD JUMPI POP DUP6 DUP4 ADD MLOAD JUMPDEST PUSH1 0x0 NOT PUSH1 0x3 DUP7 SWAP1 SHL SHR NOT AND PUSH1 0x1 DUP6 SWAP1 SHL OR DUP6 SSTORE PUSH2 0xE8A JUMP JUMPDEST PUSH1 0x0 DUP6 DUP2 MSTORE PUSH1 0x20 DUP2 KECCAK256 PUSH1 0x1F NOT DUP7 AND SWAP2 JUMPDEST DUP3 DUP2 LT ISZERO PUSH2 0xF24 JUMPI DUP9 DUP7 ADD MLOAD DUP3 SSTORE SWAP5 DUP5 ADD SWAP5 PUSH1 0x1 SWAP1 SWAP2 ADD SWAP1 DUP5 ADD PUSH2 0xF05 JUMP JUMPDEST POP DUP6 DUP3 LT ISZERO PUSH2 0xF42 JUMPI DUP8 DUP6 ADD MLOAD PUSH1 0x0 NOT PUSH1 0x3 DUP9 SWAP1 SHL PUSH1 0xF8 AND SHR NOT AND DUP2 SSTORE JUMPDEST POP POP POP POP POP PUSH1 0x1 SWAP1 DUP2 SHL ADD SWAP1 SSTORE POP JUMP JUMPDEST DUP1 DUP3 ADD DUP1 DUP3 GT ISZERO PUSH2 0xF65 JUMPI PUSH2 0xF65 PUSH2 0xE15 JUMP JUMPDEST SWAP3 SWAP2 POP POP JUMP JUMPDEST DUP2 DUP2 SUB DUP2 DUP2 GT ISZERO PUSH2 0xF65 JUMPI PUSH2 0xF65 PUSH2 0xE15 JUMP JUMPDEST PUSH1 0x0 DUP1 DUP4 SLOAD PUSH2 0xF8C DUP2 PUSH2 0xDC5 JUMP JUMPDEST PUSH1 0x1 DUP3 DUP2 AND DUP1 ISZERO PUSH2 0xFA4 JUMPI PUSH1 0x1 DUP2 EQ PUSH2 0xFB9 JUMPI PUSH2 0xFE8 JUMP JUMPDEST PUSH1 0xFF NOT DUP5 AND DUP8 MSTORE DUP3 ISZERO ISZERO DUP4 MUL DUP8 ADD SWAP5 POP PUSH2 0xFE8 JUMP JUMPDEST DUP8 PUSH1 0x0 MSTORE PUSH1 0x20 DUP1 PUSH1 0x0 KECCAK256 PUSH1 0x0 JUMPDEST DUP6 DUP2 LT ISZERO PUSH2 0xFDF JUMPI DUP2 SLOAD DUP11 DUP3 ADD MSTORE SWAP1 DUP5 ADD SWAP1 DUP3 ADD PUSH2 0xFC6 JUMP JUMPDEST POP POP POP DUP3 DUP8 ADD SWAP5 POP JUMPDEST POP SWAP3 SWAP7 SWAP6 POP POP POP POP POP POP JUMP JUMPDEST PUSH1 0x20 DUP1 DUP3 MSTORE PUSH1 0x2B SWAP1 DUP3 ADD MSTORE PUSH32 0x496E697469616C697A61626C653A20636F6E7472616374206973206E6F742069 PUSH1 0x40 DUP3 ADD MSTORE PUSH11 0x6E697469616C697A696E67 PUSH1 0xA8 SHL PUSH1 0x60 DUP3 ADD MSTORE PUSH1 0x80 ADD SWAP1 JUMP INVALID LOG2 PUSH5 0x6970667358 0x22 SLT KECCAK256 0xEE 0xB6 PUSH30 0x86F3BE6BAC586DABF58BAA6D07D8BF6E0CBE70E20CF23CBB6E5598710F64 PUSH20 0x6F6C634300081400330000000000000000000000 "},"gasEstimates":{"creation":{"codeDepositCost":"842600","executionCost":"30466","totalCost":"873066"},"external":{"addTransaction(address,uint256,bytes)":"infinite","confirmTransaction(uint256)":"infinite","confirmations(uint256,address)":"2674","executeTransaction(uint256)":"infinite","getConfirmationsCount(uint256)":"infinite","initialize(address[],uint256)":"infinite","isConfirmed(uint256)":"infinite","owner()":"2387","owners(uint256)":"4627","renounceOwnership()":"infinite","required()":"2317","submitTransaction(address,uint256,bytes)":"infinite","transactionCount()":"2318","transactions(uint256)":"infinite","transferOwnership(address)":"infinite"},"internal":{"isOwner(address)":"infinite"}},"methodIdentifiers":{"addTransaction(address,uint256,bytes)":"ec096f8d","confirmTransaction(uint256)":"c01a8c84","confirmations(uint256,address)":"3411c81c","executeTransaction(uint256)":"ee22610b","getConfirmationsCount(uint256)":"bce800e5","initialize(address[],uint256)":"60b5bb3f","isConfirmed(uint256)":"784547a7","owner()":"8da5cb5b","owners(uint256)":"025e7c27","renounceOwnership()":"715018a6","required()":"dc8452cd","submitTransaction(address,uint256,bytes)":"c6427474","transactionCount()":"b77bf600","transactions(uint256)":"9ace38c2","transferOwnership(address)":"f2fde38b"}},"storageLayout":{"storage":[{"astId":139,"contract":"contracts/MultiSig.sol:MultiSig","label":"_initialized","offset":0,"slot":"0","type":"t_uint8"},{"astId":142,"contract":"contracts/MultiSig.sol:MultiSig","label":"_initializing","offset":1,"slot":"0","type":"t_bool"},{"astId":444,"contract":"contracts/MultiSig.sol:MultiSig","label":"_status","offset":0,"slot":"1","type":"t_uint256"},{"astId":513,"contract":"contracts/MultiSig.sol:MultiSig","label":"__gap","offset":0,"slot":"2","type":"t_array(t_uint256)49_storage"},{"astId":1610,"contract":"contracts/MultiSig.sol:MultiSig","label":"__gap","offset":0,"slot":"51","type":"t_array(t_uint256)50_storage"},{"astId":11,"contract":"contracts/MultiSig.sol:MultiSig","label":"_owner","offset":0,"slot":"101","type":"t_address"},{"astId":131,"contract":"contracts/MultiSig.sol:MultiSig","label":"__gap","offset":0,"slot":"102","type":"t_array(t_uint256)49_storage"},{"astId":1624,"contract":"contracts/MultiSig.sol:MultiSig","label":"owners","offset":0,"slot":"151","type":"t_array(t_address)dyn_storage"},{"astId":1626,"contract":"contracts/MultiSig.sol:MultiSig","label":"transactionCount","offset":0,"slot":"152","type":"t_uint256"},{"astId":1628,"contract":"contracts/MultiSig.sol:MultiSig","label":"required","offset":0,"slot":"153","type":"t_uint256"},{"astId":1642,"contract":"contracts/MultiSig.sol:MultiSig","label":"transactions","offset":0,"slot":"154","type":"t_mapping(t_uint256,t_struct(Transaction)1637_storage)"},{"astId":1648,"contract":"contracts/MultiSig.sol:MultiSig","label":"confirmations","offset":0,"slot":"155","type":"t_mapping(t_uint256,t_mapping(t_address,t_bool))"}],"types":{"t_address":{"encoding":"inplace","label":"address","numberOfBytes":"20"},"t_address_payable":{"encoding":"inplace","label":"address payable","numberOfBytes":"20"},"t_array(t_address)dyn_storage":{"base":"t_address","encoding":"dynamic_array","label":"address[]","numberOfBytes":"32"},"t_array(t_uint256)49_storage":{"base":"t_uint256","encoding":"inplace","label":"uint256[49]","numberOfBytes":"1568"},"t_array(t_uint256)50_storage":{"base":"t_uint256","encoding":"inplace","label":"uint256[50]","numberOfBytes":"1600"},"t_bool":{"encoding":"inplace","label":"bool","numberOfBytes":"1"},"t_bytes_storage":{"encoding":"bytes","label":"bytes","numberOfBytes":"32"},"t_mapping(t_address,t_bool)":{"encoding":"mapping","key":"t_address","label":"mapping(address => bool)","numberOfBytes":"32","value":"t_bool"},"t_mapping(t_uint256,t_mapping(t_address,t_bool))":{"encoding":"mapping","key":"t_uint256","label":"mapping(uint256 => mapping(address => bool))","numberOfBytes":"32","value":"t_mapping(t_address,t_bool)"},"t_mapping(t_uint256,t_struct(Transaction)1637_storage)":{"encoding":"mapping","key":"t_uint256","label":"mapping(uint256 => struct MultiSig.Transaction)","numberOfBytes":"32","value":"t_struct(Transaction)1637_storage"},"t_struct(Transaction)1637_storage":{"encoding":"inplace","label":"struct MultiSig.Transaction","members":[{"astId":1630,"contract":"contracts/MultiSig.sol:MultiSig","label":"destination","offset":0,"slot":"0","type":"t_address_payable"},{"astId":1632,"contract":"contracts/MultiSig.sol:MultiSig","label":"value","offset":0,"slot":"1","type":"t_uint256"},{"astId":1634,"contract":"contracts/MultiSig.sol:MultiSig","label":"executed","offset":0,"slot":"2","type":"t_bool"},{"astId":1636,"contract":"contracts/MultiSig.sol:MultiSig","label":"data","offset":0,"slot":"3","type":"t_bytes_storage"}],"numberOfBytes":"128"},"t_uint256":{"encoding":"inplace","label":"uint256","numberOfBytes":"32"},"t_uint8":{"encoding":"inplace","label":"uint8","numberOfBytes":"1"}}},"userdoc":{"kind":"user","methods":{},"notice":"This Smart Contract is a MultiSig Wallet","version":1}}}}