{
  "address": "0xe7f1725E7734CE288F8367e1Bb143E90bb3F0512",
  "abi": [
    {
      "inputs": [],
      "stateMutability": "nonpayable",
      "type": "constructor"
    },
    {
      "anonymous": false,
      "inputs": [
        {
          "indexed": false,
          "internalType": "uint8",
          "name": "version",
          "type": "uint8"
        }
      ],
      "name": "Initialized",
      "type": "event"
    },
    {
      "anonymous": false,
      "inputs": [
        {
          "indexed": true,
          "internalType": "address",
          "name": "previousOwner",
          "type": "address"
        },
        {
          "indexed": true,
          "internalType": "address",
          "name": "newOwner",
          "type": "address"
        }
      ],
      "name": "OwnershipTransferred",
      "type": "event"
    },
    {
      "inputs": [
        {
          "internalType": "address payable",
          "name": "destination",
          "type": "address"
        },
        {
          "internalType": "uint256",
          "name": "value",
          "type": "uint256"
        },
        {
          "internalType": "bytes",
          "name": "data",
          "type": "bytes"
        }
      ],
      "name": "addTransaction",
      "outputs": [
        {
          "internalType": "uint256",
          "name": "",
          "type": "uint256"
        }
      ],
      "stateMutability": "nonpayable",
      "type": "function"
    },
    {
      "inputs": [
        {
          "internalType": "uint256",
          "name": "transactionId",
          "type": "uint256"
        }
      ],
      "name": "confirmTransaction",
      "outputs": [],
      "stateMutability": "nonpayable",
      "type": "function"
    },
    {
      "inputs": [
        {
          "internalType": "uint256",
          "name": "",
          "type": "uint256"
        },
        {
          "internalType": "address",
          "name": "",
          "type": "address"
        }
      ],
      "name": "confirmations",
      "outputs": [
        {
          "internalType": "bool",
          "name": "",
          "type": "bool"
        }
      ],
      "stateMutability": "view",
      "type": "function"
    },
    {
      "inputs": [
        {
          "internalType": "uint256",
          "name": "transactionId",
          "type": "uint256"
        }
      ],
      "name": "executeTransaction",
      "outputs": [],
      "stateMutability": "nonpayable",
      "type": "function"
    },
    {
      "inputs": [
        {
          "internalType": "uint256",
          "name": "transactionId",
          "type": "uint256"
        }
      ],
      "name": "getConfirmationsCount",
      "outputs": [
        {
          "internalType": "uint256",
          "name": "",
          "type": "uint256"
        }
      ],
      "stateMutability": "view",
      "type": "function"
    },
    {
      "inputs": [
        {
          "internalType": "address[]",
          "name": "_owners",
          "type": "address[]"
        },
        {
          "internalType": "uint256",
          "name": "_confirmations",
          "type": "uint256"
        }
      ],
      "name": "initialize",
      "outputs": [],
      "stateMutability": "nonpayable",
      "type": "function"
    },
    {
      "inputs": [
        {
          "internalType": "uint256",
          "name": "transactionId",
          "type": "uint256"
        }
      ],
      "name": "isConfirmed",
      "outputs": [
        {
          "internalType": "bool",
          "name": "",
          "type": "bool"
        }
      ],
      "stateMutability": "view",
      "type": "function"
    },
    {
      "inputs": [],
      "name": "owner",
      "outputs": [
        {
          "internalType": "address",
          "name": "",
          "type": "address"
        }
      ],
      "stateMutability": "view",
      "type": "function"
    },
    {
      "inputs": [
        {
          "internalType": "uint256",
          "name": "",
          "type": "uint256"
        }
      ],
      "name": "owners",
      "outputs": [
        {
          "internalType": "address",
          "name": "",
          "type": "address"
        }
      ],
      "stateMutability": "view",
      "type": "function"
    },
    {
      "inputs": [],
      "name": "renounceOwnership",
      "outputs": [],
      "stateMutability": "nonpayable",
      "type": "function"
    },
    {
      "inputs": [],
      "name": "required",
      "outputs": [
        {
          "internalType": "uint256",
          "name": "",
          "type": "uint256"
        }
      ],
      "stateMutability": "view",
      "type": "function"
    },
    {
      "inputs": [
        {
          "internalType": "address payable",
          "name": "dest",
          "type": "address"
        },
        {
          "internalType": "uint256",
          "name": "value",
          "type": "uint256"
        },
        {
          "internalType": "bytes",
          "name": "data",
          "type": "bytes"
        }
      ],
      "name": "submitTransaction",
      "outputs": [],
      "stateMutability": "nonpayable",
      "type": "function"
    },
    {
      "inputs": [],
      "name": "transactionCount",
      "outputs": [
        {
          "internalType": "uint256",
          "name": "",
          "type": "uint256"
        }
      ],
      "stateMutability": "view",
      "type": "function"
    },
    {
      "inputs": [
        {
          "internalType": "uint256",
          "name": "",
          "type": "uint256"
        }
      ],
      "name": "transactions",
      "outputs": [
        {
          "internalType": "address payable",
          "name": "destination",
          "type": "address"
        },
        {
          "internalType": "uint256",
          "name": "value",
          "type": "uint256"
        },
        {
          "internalType": "bool",
          "name": "executed",
          "type": "bool"
        },
        {
          "internalType": "bytes",
          "name": "data",
          "type": "bytes"
        }
      ],
      "stateMutability": "view",
      "type": "function"
    },
    {
      "inputs": [
        {
          "internalType": "address",
          "name": "newOwner",
          "type": "address"
        }
      ],
      "name": "transferOwnership",
      "outputs": [],
      "stateMutability": "nonpayable",
      "type": "function"
    },
    {
      "stateMutability": "payable",
      "type": "receive"
    }
  ],
  "transactionHash": "0x5901cc4a25b92bb5e66e2a8db33888a912278d430e759221f8ddc3aa5263a79a",
  "args": [],
  "numDeployments": 1,
  "solcInputHash": "a4c8b2deab4d80e901f019b475082623",
  "bytecode": "0x608060405234801561001057600080fd5b5061001961001e565b6100dd565b600054610100900460ff161561008a5760405162461bcd60e51b815260206004820152602760248201527f496e697469616c697a61626c653a20636f6e747261637420697320696e697469604482015266616c697a696e6760c81b606482015260840160405180910390fd5b60005460ff908116146100db576000805460ff191660ff9081179091556040519081527f7f26b83ff96e1f2b6a682f133852f6798a09c465da95921460cefb38474024989060200160405180910390a15b565b611075806100ec6000396000f3fe6080604052600436106100ec5760003560e01c8063b77bf6001161008a578063dc8452cd11610059578063dc8452cd146102a9578063ec096f8d146102bf578063ee22610b146102df578063f2fde38b146102ff57600080fd5b8063b77bf60014610225578063bce800e514610249578063c01a8c8414610269578063c64274741461028957600080fd5b8063715018a6116100c6578063715018a6146101a2578063784547a7146101b75780638da5cb5b146101d75780639ace38c2146101f557600080fd5b8063025e7c27146100f85780633411c81c1461013557806360b5bb3f1461018057600080fd5b366100f357005b600080fd5b34801561010457600080fd5b50610118610113366004610b5b565b61031f565b6040516001600160a01b0390911681526020015b60405180910390f35b34801561014157600080fd5b50610170610150366004610b99565b609b60209081526000928352604080842090915290825290205460ff1681565b604051901515815260200161012c565b34801561018c57600080fd5b506101a061019b366004610bdf565b610349565b005b3480156101ae57600080fd5b506101a06104ab565b3480156101c357600080fd5b506101706101d2366004610b5b565b6104bf565b3480156101e357600080fd5b506065546001600160a01b0316610118565b34801561020157600080fd5b50610215610210366004610b5b565b6104d5565b60405161012c9493929190610caa565b34801561023157600080fd5b5061023b60985481565b60405190815260200161012c565b34801561025557600080fd5b5061023b610264366004610b5b565b610596565b34801561027557600080fd5b506101a0610284366004610b5b565b61061f565b34801561029557600080fd5b506101a06102a4366004610d18565b61066f565b3480156102b557600080fd5b5061023b60995481565b3480156102cb57600080fd5b5061023b6102da366004610d18565b61068f565b3480156102eb57600080fd5b506101a06102fa366004610b5b565b61078b565b34801561030b57600080fd5b506101a061031a366004610da1565b610842565b6097818154811061032f57600080fd5b6000918252602090912001546001600160a01b0316905081565b600054610100900460ff16158080156103695750600054600160ff909116105b806103835750303b158015610383575060005460ff166001145b6103eb5760405162461bcd60e51b815260206004820152602e60248201527f496e697469616c697a61626c653a20636f6e747261637420697320616c72656160448201526d191e481a5b9a5d1a585b1a5e995960921b60648201526084015b60405180910390fd5b6000805460ff19166001179055801561040e576000805461ff0019166101001790555b6104166108b8565b61041e6108e7565b600083511161042c57600080fd5b6000821161043957600080fd5b825182111561044757600080fd5b825161045a906097906020860190610ae1565b50609982905580156104a6576000805461ff0019169055604051600181527f7f26b83ff96e1f2b6a682f133852f6798a09c465da95921460cefb38474024989060200160405180910390a15b505050565b6104b3610916565b6104bd6000610970565b565b60006099546104cd83610596565b101592915050565b609a6020526000908152604090208054600182015460028301546003840180546001600160a01b0390941694929360ff909216929161051390610dc5565b80601f016020809104026020016040519081016040528092919081815260200182805461053f90610dc5565b801561058c5780601f106105615761010080835404028352916020019161058c565b820191906000526020600020905b81548152906001019060200180831161056f57829003601f168201915b5050505050905084565b60008060005b609754811015610618576000848152609b6020526040812060978054919291849081106105cb576105cb610dff565b60009182526020808320909101546001600160a01b0316835282019290925260400190205460ff1615610606578161060281610e2b565b9250505b8061061081610e2b565b91505061059c565b5092915050565b610628336109c2565b61063157600080fd5b6000818152609b602090815260408083203384529091529020805460ff1916600117905561065e816104bf565b1561066c5761066c8161078b565b50565b600061067d8585858561068f565b90506106888161061f565b5050505050565b60006040518060800160405280866001600160a01b0316815260200185815260200160001515815260200184848080601f01602080910402602001604051908101604052809392919081815260200183838082843760009201829052509390945250506098548152609a6020908152604091829020845181546001600160a01b0319166001600160a01b039091161781559084015160018201559083015160028201805460ff1916911515919091179055606083015190915060038201906107579082610e92565b5090505060016098600082825461076e9190610f52565b909155505060985461078290600190610f6b565b95945050505050565b610793610a2b565b61079c816104bf565b6107a557600080fd5b6000818152609a60205260408082208054600182015492519193926001600160a01b03909116916107da906003860190610f7e565b60006040518083038185875af1925050503d8060008114610817576040519150601f19603f3d011682016040523d82523d6000602084013e61081c565b606091505b505090508061082a57600080fd5b50600201805460ff1916600117905561066c60018055565b61084a610916565b6001600160a01b0381166108af5760405162461bcd60e51b815260206004820152602660248201527f4f776e61626c653a206e6577206f776e657220697320746865207a65726f206160448201526564647265737360d01b60648201526084016103e2565b61066c81610970565b600054610100900460ff166108df5760405162461bcd60e51b81526004016103e290610ff4565b6104bd610a8a565b600054610100900460ff1661090e5760405162461bcd60e51b81526004016103e290610ff4565b6104bd610aba565b6065546001600160a01b031633146104bd5760405162461bcd60e51b815260206004820181905260248201527f4f776e61626c653a2063616c6c6572206973206e6f7420746865206f776e657260448201526064016103e2565b606580546001600160a01b038381166001600160a01b0319831681179093556040519116919082907f8be0079c531659141344cd1fd0a4f28419497f9722a3daafe3b4186f6b6457e090600090a35050565b6000805b609754811015610a2257826001600160a01b0316609782815481106109ed576109ed610dff565b6000918252602090912001546001600160a01b031603610a105750600192915050565b80610a1a81610e2b565b9150506109c6565b50600092915050565b600260015403610a7d5760405162461bcd60e51b815260206004820152601f60248201527f5265656e7472616e637947756172643a207265656e7472616e742063616c6c0060448201526064016103e2565b6002600155565b60018055565b600054610100900460ff16610ab15760405162461bcd60e51b81526004016103e290610ff4565b6104bd33610970565b600054610100900460ff16610a845760405162461bcd60e51b81526004016103e290610ff4565b828054828255906000526020600020908101928215610b36579160200282015b82811115610b3657825182546001600160a01b0319166001600160a01b03909116178255602090920191600190910190610b01565b50610b42929150610b46565b5090565b5b80821115610b425760008155600101610b47565b600060208284031215610b6d57600080fd5b5035919050565b6001600160a01b038116811461066c57600080fd5b8035610b9481610b74565b919050565b60008060408385031215610bac57600080fd5b823591506020830135610bbe81610b74565b809150509250929050565b634e487b7160e01b600052604160045260246000fd5b60008060408385031215610bf257600080fd5b823567ffffffffffffffff80821115610c0a57600080fd5b818501915085601f830112610c1e57600080fd5b8135602082821115610c3257610c32610bc9565b8160051b604051601f19603f83011681018181108682111715610c5757610c57610bc9565b604052928352818301935084810182019289841115610c7557600080fd5b948201945b83861015610c9a57610c8b86610b89565b85529482019493820193610c7a565b9997909101359750505050505050565b60018060a01b0385168152600060208581840152841515604084015260806060840152835180608085015260005b81811015610cf45785810183015185820160a001528201610cd8565b50600060a0828601015260a0601f19601f8301168501019250505095945050505050565b60008060008060608587031215610d2e57600080fd5b8435610d3981610b74565b935060208501359250604085013567ffffffffffffffff80821115610d5d57600080fd5b818701915087601f830112610d7157600080fd5b813581811115610d8057600080fd5b886020828501011115610d9257600080fd5b95989497505060200194505050565b600060208284031215610db357600080fd5b8135610dbe81610b74565b9392505050565b600181811c90821680610dd957607f821691505b602082108103610df957634e487b7160e01b600052602260045260246000fd5b50919050565b634e487b7160e01b600052603260045260246000fd5b634e487b7160e01b600052601160045260246000fd5b600060018201610e3d57610e3d610e15565b5060010190565b601f8211156104a657600081815260208120601f850160051c81016020861015610e6b5750805b601f850160051c820191505b81811015610e8a57828155600101610e77565b505050505050565b815167ffffffffffffffff811115610eac57610eac610bc9565b610ec081610eba8454610dc5565b84610e44565b602080601f831160018114610ef55760008415610edd5750858301515b600019600386901b1c1916600185901b178555610e8a565b600085815260208120601f198616915b82811015610f2457888601518255948401946001909101908401610f05565b5085821015610f425787850151600019600388901b60f8161c191681555b5050505050600190811b01905550565b80820180821115610f6557610f65610e15565b92915050565b81810381811115610f6557610f65610e15565b6000808354610f8c81610dc5565b60018281168015610fa45760018114610fb957610fe8565b60ff1984168752821515830287019450610fe8565b8760005260208060002060005b85811015610fdf5781548a820152908401908201610fc6565b50505082870194505b50929695505050505050565b6020808252602b908201527f496e697469616c697a61626c653a20636f6e7472616374206973206e6f74206960408201526a6e697469616c697a696e6760a81b60608201526080019056fea2646970667358221220eeb67d86f3be6bac586dabf58baa6d07d8bf6e0cbe70e20cf23cbb6e5598710f64736f6c63430008140033",
  "devdoc": {
    "author": "eludius18",
    "events": {
      "Initialized(uint8)": {
        "details": "Triggered when the contract has been initialized or reinitialized."
      }
    },
    "kind": "dev",
    "methods": {
      "owner()": {
        "details": "Returns the address of the current owner."
      },
      "renounceOwnership()": {
        "details": "Leaves the contract without owner. It will not be possible to call `onlyOwner` functions. Can only be called by the current owner. NOTE: Renouncing ownership will leave the contract without an owner, thereby disabling any functionality that is only available to the owner."
      },
      "transferOwnership(address)": {
        "details": "Transfers ownership of the contract to a new account (`newOwner`). Can only be called by the current owner."
      }
    },
    "title": "MultiSig Wallet",
    "version": 1
  },
  "userdoc": {
    "kind": "user",
    "methods": {},
    "notice": "This Smart Contract is a MultiSig Wallet",
    "version": 1
  },
  "storageLayout": {
    "storage": [
      {
        "astId": 139,
        "contract": "contracts/MultiSig.sol:MultiSig",
        "label": "_initialized",
        "offset": 0,
        "slot": "0",
        "type": "t_uint8"
      },
      {
        "astId": 142,
        "contract": "contracts/MultiSig.sol:MultiSig",
        "label": "_initializing",
        "offset": 1,
        "slot": "0",
        "type": "t_bool"
      },
      {
        "astId": 444,
        "contract": "contracts/MultiSig.sol:MultiSig",
        "label": "_status",
        "offset": 0,
        "slot": "1",
        "type": "t_uint256"
      },
      {
        "astId": 513,
        "contract": "contracts/MultiSig.sol:MultiSig",
        "label": "__gap",
        "offset": 0,
        "slot": "2",
        "type": "t_array(t_uint256)49_storage"
      },
      {
        "astId": 1610,
        "contract": "contracts/MultiSig.sol:MultiSig",
        "label": "__gap",
        "offset": 0,
        "slot": "51",
        "type": "t_array(t_uint256)50_storage"
      },
      {
        "astId": 11,
        "contract": "contracts/MultiSig.sol:MultiSig",
        "label": "_owner",
        "offset": 0,
        "slot": "101",
        "type": "t_address"
      },
      {
        "astId": 131,
        "contract": "contracts/MultiSig.sol:MultiSig",
        "label": "__gap",
        "offset": 0,
        "slot": "102",
        "type": "t_array(t_uint256)49_storage"
      },
      {
        "astId": 1624,
        "contract": "contracts/MultiSig.sol:MultiSig",
        "label": "owners",
        "offset": 0,
        "slot": "151",
        "type": "t_array(t_address)dyn_storage"
      },
      {
        "astId": 1626,
        "contract": "contracts/MultiSig.sol:MultiSig",
        "label": "transactionCount",
        "offset": 0,
        "slot": "152",
        "type": "t_uint256"
      },
      {
        "astId": 1628,
        "contract": "contracts/MultiSig.sol:MultiSig",
        "label": "required",
        "offset": 0,
        "slot": "153",
        "type": "t_uint256"
      },
      {
        "astId": 1642,
        "contract": "contracts/MultiSig.sol:MultiSig",
        "label": "transactions",
        "offset": 0,
        "slot": "154",
        "type": "t_mapping(t_uint256,t_struct(Transaction)1637_storage)"
      },
      {
        "astId": 1648,
        "contract": "contracts/MultiSig.sol:MultiSig",
        "label": "confirmations",
        "offset": 0,
        "slot": "155",
        "type": "t_mapping(t_uint256,t_mapping(t_address,t_bool))"
      }
    ],
    "types": {
      "t_address": {
        "encoding": "inplace",
        "label": "address",
        "numberOfBytes": "20"
      },
      "t_address_payable": {
        "encoding": "inplace",
        "label": "address payable",
        "numberOfBytes": "20"
      },
      "t_array(t_address)dyn_storage": {
        "base": "t_address",
        "encoding": "dynamic_array",
        "label": "address[]",
        "numberOfBytes": "32"
      },
      "t_array(t_uint256)49_storage": {
        "base": "t_uint256",
        "encoding": "inplace",
        "label": "uint256[49]",
        "numberOfBytes": "1568"
      },
      "t_array(t_uint256)50_storage": {
        "base": "t_uint256",
        "encoding": "inplace",
        "label": "uint256[50]",
        "numberOfBytes": "1600"
      },
      "t_bool": {
        "encoding": "inplace",
        "label": "bool",
        "numberOfBytes": "1"
      },
      "t_bytes_storage": {
        "encoding": "bytes",
        "label": "bytes",
        "numberOfBytes": "32"
      },
      "t_mapping(t_address,t_bool)": {
        "encoding": "mapping",
        "key": "t_address",
        "label": "mapping(address => bool)",
        "numberOfBytes": "32",
        "value": "t_bool"
      },
      "t_mapping(t_uint256,t_mapping(t_address,t_bool))": {
        "encoding": "mapping",
        "key": "t_uint256",
        "label": "mapping(uint256 => mapping(address => bool))",
        "numberOfBytes": "32",
        "value": "t_mapping(t_address,t_bool)"
      },
      "t_mapping(t_uint256,t_struct(Transaction)1637_storage)": {
        "encoding": "mapping",
        "key": "t_uint256",
        "label": "mapping(uint256 => struct MultiSig.Transaction)",
        "numberOfBytes": "32",
        "value": "t_struct(Transaction)1637_storage"
      },
      "t_struct(Transaction)1637_storage": {
        "encoding": "inplace",
        "label": "struct MultiSig.Transaction",
        "members": [
          {
            "astId": 1630,
            "contract": "contracts/MultiSig.sol:MultiSig",
            "label": "destination",
            "offset": 0,
            "slot": "0",
            "type": "t_address_payable"
          },
          {
            "astId": 1632,
            "contract": "contracts/MultiSig.sol:MultiSig",
            "label": "value",
            "offset": 0,
            "slot": "1",
            "type": "t_uint256"
          },
          {
            "astId": 1634,
            "contract": "contracts/MultiSig.sol:MultiSig",
            "label": "executed",
            "offset": 0,
            "slot": "2",
            "type": "t_bool"
          },
          {
            "astId": 1636,
            "contract": "contracts/MultiSig.sol:MultiSig",
            "label": "data",
            "offset": 0,
            "slot": "3",
            "type": "t_bytes_storage"
          }
        ],
        "numberOfBytes": "128"
      },
      "t_uint256": {
        "encoding": "inplace",
        "label": "uint256",
        "numberOfBytes": "32"
      },
      "t_uint8": {
        "encoding": "inplace",
        "label": "uint8",
        "numberOfBytes": "1"
      }
    }
  }
}