{
  "address": "0xe7f1725E7734CE288F8367e1Bb143E90bb3F0512",
  "abi": [
    {
      "inputs": [],
      "stateMutability": "nonpayable",
      "type": "constructor"
    },
    {
      "anonymous": false,
      "inputs": [
        {
          "indexed": false,
          "internalType": "uint8",
          "name": "version",
          "type": "uint8"
        }
      ],
      "name": "Initialized",
      "type": "event"
    },
    {
      "anonymous": false,
      "inputs": [
        {
          "indexed": true,
          "internalType": "address",
          "name": "previousOwner",
          "type": "address"
        },
        {
          "indexed": true,
          "internalType": "address",
          "name": "newOwner",
          "type": "address"
        }
      ],
      "name": "OwnershipTransferred",
      "type": "event"
    },
    {
      "anonymous": false,
      "inputs": [
        {
          "indexed": false,
          "internalType": "address",
          "name": "account",
          "type": "address"
        }
      ],
      "name": "Paused",
      "type": "event"
    },
    {
      "anonymous": false,
      "inputs": [
        {
          "indexed": true,
          "internalType": "uint256",
          "name": "transactionId",
          "type": "uint256"
        }
      ],
      "name": "Submission",
      "type": "event"
    },
    {
      "anonymous": false,
      "inputs": [
        {
          "indexed": false,
          "internalType": "address",
          "name": "account",
          "type": "address"
        }
      ],
      "name": "Unpaused",
      "type": "event"
    },
    {
      "inputs": [
        {
          "internalType": "address payable",
          "name": "destination",
          "type": "address"
        },
        {
          "internalType": "uint256",
          "name": "value",
          "type": "uint256"
        },
        {
          "internalType": "bytes",
          "name": "data",
          "type": "bytes"
        }
      ],
      "name": "addTransaction",
      "outputs": [
        {
          "internalType": "uint256",
          "name": "",
          "type": "uint256"
        }
      ],
      "stateMutability": "nonpayable",
      "type": "function"
    },
    {
      "inputs": [
        {
          "internalType": "uint256",
          "name": "transactionId",
          "type": "uint256"
        }
      ],
      "name": "confirmTransaction",
      "outputs": [],
      "stateMutability": "nonpayable",
      "type": "function"
    },
    {
      "inputs": [
        {
          "internalType": "uint256",
          "name": "",
          "type": "uint256"
        },
        {
          "internalType": "address",
          "name": "",
          "type": "address"
        }
      ],
      "name": "confirmations",
      "outputs": [
        {
          "internalType": "bool",
          "name": "",
          "type": "bool"
        }
      ],
      "stateMutability": "view",
      "type": "function"
    },
    {
      "inputs": [
        {
          "internalType": "uint256",
          "name": "transactionId",
          "type": "uint256"
        }
      ],
      "name": "executeTransaction",
      "outputs": [],
      "stateMutability": "nonpayable",
      "type": "function"
    },
    {
      "inputs": [
        {
          "internalType": "uint256",
          "name": "transactionId",
          "type": "uint256"
        }
      ],
      "name": "getConfirmationsCount",
      "outputs": [
        {
          "internalType": "uint256",
          "name": "",
          "type": "uint256"
        }
      ],
      "stateMutability": "view",
      "type": "function"
    },
    {
      "inputs": [
        {
          "internalType": "address[]",
          "name": "_owners",
          "type": "address[]"
        },
        {
          "internalType": "uint256",
          "name": "_confirmations",
          "type": "uint256"
        }
      ],
      "name": "initialize",
      "outputs": [],
      "stateMutability": "nonpayable",
      "type": "function"
    },
    {
      "inputs": [
        {
          "internalType": "uint256",
          "name": "transactionId",
          "type": "uint256"
        }
      ],
      "name": "isConfirmed",
      "outputs": [
        {
          "internalType": "bool",
          "name": "",
          "type": "bool"
        }
      ],
      "stateMutability": "view",
      "type": "function"
    },
    {
      "inputs": [],
      "name": "owner",
      "outputs": [
        {
          "internalType": "address",
          "name": "",
          "type": "address"
        }
      ],
      "stateMutability": "view",
      "type": "function"
    },
    {
      "inputs": [
        {
          "internalType": "uint256",
          "name": "",
          "type": "uint256"
        }
      ],
      "name": "owners",
      "outputs": [
        {
          "internalType": "address",
          "name": "",
          "type": "address"
        }
      ],
      "stateMutability": "view",
      "type": "function"
    },
    {
      "inputs": [],
      "name": "pause",
      "outputs": [],
      "stateMutability": "nonpayable",
      "type": "function"
    },
    {
      "inputs": [],
      "name": "paused",
      "outputs": [
        {
          "internalType": "bool",
          "name": "",
          "type": "bool"
        }
      ],
      "stateMutability": "view",
      "type": "function"
    },
    {
      "inputs": [],
      "name": "renounceOwnership",
      "outputs": [],
      "stateMutability": "nonpayable",
      "type": "function"
    },
    {
      "inputs": [],
      "name": "required",
      "outputs": [
        {
          "internalType": "uint256",
          "name": "",
          "type": "uint256"
        }
      ],
      "stateMutability": "view",
      "type": "function"
    },
    {
      "inputs": [
        {
          "internalType": "address payable",
          "name": "dest",
          "type": "address"
        },
        {
          "internalType": "uint256",
          "name": "value",
          "type": "uint256"
        },
        {
          "internalType": "bytes",
          "name": "data",
          "type": "bytes"
        }
      ],
      "name": "submitTransaction",
      "outputs": [],
      "stateMutability": "nonpayable",
      "type": "function"
    },
    {
      "inputs": [],
      "name": "transactionCount",
      "outputs": [
        {
          "internalType": "uint256",
          "name": "",
          "type": "uint256"
        }
      ],
      "stateMutability": "view",
      "type": "function"
    },
    {
      "inputs": [
        {
          "internalType": "uint256",
          "name": "",
          "type": "uint256"
        }
      ],
      "name": "transactions",
      "outputs": [
        {
          "internalType": "address payable",
          "name": "destination",
          "type": "address"
        },
        {
          "internalType": "uint256",
          "name": "value",
          "type": "uint256"
        },
        {
          "internalType": "bool",
          "name": "executed",
          "type": "bool"
        },
        {
          "internalType": "bytes",
          "name": "data",
          "type": "bytes"
        }
      ],
      "stateMutability": "view",
      "type": "function"
    },
    {
      "inputs": [
        {
          "internalType": "address",
          "name": "newOwner",
          "type": "address"
        }
      ],
      "name": "transferOwnership",
      "outputs": [],
      "stateMutability": "nonpayable",
      "type": "function"
    },
    {
      "inputs": [],
      "name": "unpause",
      "outputs": [],
      "stateMutability": "nonpayable",
      "type": "function"
    },
    {
      "stateMutability": "payable",
      "type": "receive"
    }
  ],
  "transactionHash": "0xbe1cf8d99fab00ceb3f954c9bbe22283c69c9faa08c6da3c984d4bbad378ee7d",
  "args": [],
  "numDeployments": 1,
  "solcInputHash": "1c111ecf3de30c18a39021cd681a14b2",
  "bytecode": "0x608060405234801561001057600080fd5b5061001961001e565b6100dd565b600054610100900460ff161561008a5760405162461bcd60e51b815260206004820152602760248201527f496e697469616c697a61626c653a20636f6e747261637420697320696e697469604482015266616c697a696e6760c81b606482015260840160405180910390fd5b60005460ff908116146100db576000805460ff191660ff9081179091556040519081527f7f26b83ff96e1f2b6a682f133852f6798a09c465da95921460cefb38474024989060200160405180910390a15b565b611262806100ec6000396000f3fe60806040526004361061010d5760003560e01c80639ace38c211610095578063c642747411610064578063c6427474146102ec578063dc8452cd1461030c578063ec096f8d14610322578063ee22610b14610342578063f2fde38b1461036257600080fd5b80639ace38c214610258578063b77bf60014610288578063bce800e5146102ac578063c01a8c84146102cc57600080fd5b806360b5bb3f116100dc57806360b5bb3f146101d0578063715018a6146101f0578063784547a7146102055780638456cb59146102255780638da5cb5b1461023a57600080fd5b8063025e7c27146101195780633411c81c146101565780633f4ba83a146101a15780635c975abb146101b857600080fd5b3661011457005b600080fd5b34801561012557600080fd5b50610139610134366004610d48565b610382565b6040516001600160a01b0390911681526020015b60405180910390f35b34801561016257600080fd5b50610191610171366004610d86565b60cd60209081526000928352604080842090915290825290205460ff1681565b604051901515815260200161014d565b3480156101ad57600080fd5b506101b66103ac565b005b3480156101c457600080fd5b5060975460ff16610191565b3480156101dc57600080fd5b506101b66101eb366004610dcc565b6103be565b3480156101fc57600080fd5b506101b6610520565b34801561021157600080fd5b50610191610220366004610d48565b610532565b34801561023157600080fd5b506101b6610548565b34801561024657600080fd5b506065546001600160a01b0316610139565b34801561026457600080fd5b50610278610273366004610d48565b610558565b60405161014d9493929190610e97565b34801561029457600080fd5b5061029e60ca5481565b60405190815260200161014d565b3480156102b857600080fd5b5061029e6102c7366004610d48565b610619565b3480156102d857600080fd5b506101b66102e7366004610d48565b6106a2565b3480156102f857600080fd5b506101b6610307366004610f05565b6106f2565b34801561031857600080fd5b5061029e60cb5481565b34801561032e57600080fd5b5061029e61033d366004610f05565b610746565b34801561034e57600080fd5b506101b661035d366004610d48565b610852565b34801561036e57600080fd5b506101b661037d366004610f8e565b610911565b60c9818154811061039257600080fd5b6000918252602090912001546001600160a01b0316905081565b6103b4610987565b6103bc6109e1565b565b600054610100900460ff16158080156103de5750600054600160ff909116105b806103f85750303b1580156103f8575060005460ff166001145b6104605760405162461bcd60e51b815260206004820152602e60248201527f496e697469616c697a61626c653a20636f6e747261637420697320616c72656160448201526d191e481a5b9a5d1a585b1a5e995960921b60648201526084015b60405180910390fd5b6000805460ff191660011790558015610483576000805461ff0019166101001790555b61048b610a33565b610493610a62565b60008351116104a157600080fd5b600082116104ae57600080fd5b82518211156104bc57600080fd5b82516104cf9060c9906020860190610cce565b5060cb829055801561051b576000805461ff0019169055604051600181527f7f26b83ff96e1f2b6a682f133852f6798a09c465da95921460cefb38474024989060200160405180910390a15b505050565b610528610987565b6103bc6000610a91565b600060cb5461054083610619565b101592915050565b610550610987565b6103bc610ae3565b60cc6020526000908152604090208054600182015460028301546003840180546001600160a01b0390941694929360ff909216929161059690610fb2565b80601f01602080910402602001604051908101604052809291908181526020018280546105c290610fb2565b801561060f5780601f106105e45761010080835404028352916020019161060f565b820191906000526020600020905b8154815290600101906020018083116105f257829003601f168201915b5050505050905084565b60008060005b60c95481101561069b57600084815260cd6020526040812060c980549192918490811061064e5761064e610fec565b60009182526020808320909101546001600160a01b0316835282019290925260400190205460ff1615610689578161068581611018565b9250505b8061069381611018565b91505061061f565b5092915050565b6106ab33610b20565b6106b457600080fd5b600081815260cd602090815260408083203384529091529020805460ff191660011790556106e181610532565b156106ef576106ef81610852565b50565b6106fa610b89565b600061070885858585610746565b60405190915081907fc0ba8fe4b176c1714197d43b9cc6bcf797a4a7461c5fe8d0ef6e184ae7601e5190600090a261073f816106a2565b5050505050565b6000610750610b89565b610758610987565b6040518060800160405280866001600160a01b0316815260200185815260200160001515815260200184848080601f016020809104026020016040519081016040528093929190818152602001838380828437600092018290525093909452505060ca54815260cc6020908152604091829020845181546001600160a01b0319166001600160a01b039091161781559084015160018201559083015160028201805460ff19169115159190911790556060830151909150600382019061081e908261107f565b50905050600160ca6000828254610835919061113f565b909155505060ca5461084990600190611158565b95945050505050565b61085a610bcf565b610862610b89565b61086b81610532565b61087457600080fd5b600081815260cc60205260408082208054600182015492519193926001600160a01b03909116916108a990600386019061116b565b60006040518083038185875af1925050503d80600081146108e6576040519150601f19603f3d011682016040523d82523d6000602084013e6108eb565b606091505b50509050806108f957600080fd5b50600201805460ff191660011790556106ef60018055565b610919610987565b6001600160a01b03811661097e5760405162461bcd60e51b815260206004820152602660248201527f4f776e61626c653a206e6577206f776e657220697320746865207a65726f206160448201526564647265737360d01b6064820152608401610457565b6106ef81610a91565b6065546001600160a01b031633146103bc5760405162461bcd60e51b815260206004820181905260248201527f4f776e61626c653a2063616c6c6572206973206e6f7420746865206f776e65726044820152606401610457565b6109e9610c2e565b6097805460ff191690557f5db9ee0a495bf2e6ff9c91a7834c1ba4fdd244a5e8aa4e537bd38aeae4b073aa335b6040516001600160a01b03909116815260200160405180910390a1565b600054610100900460ff16610a5a5760405162461bcd60e51b8152600401610457906111e1565b6103bc610c77565b600054610100900460ff16610a895760405162461bcd60e51b8152600401610457906111e1565b6103bc610ca7565b606580546001600160a01b038381166001600160a01b0319831681179093556040519116919082907f8be0079c531659141344cd1fd0a4f28419497f9722a3daafe3b4186f6b6457e090600090a35050565b610aeb610b89565b6097805460ff191660011790557f62e78cea01bee320cd4e420270b5ea74000d11b0c9f74754ebdbfc544b05a258610a163390565b6000805b60c954811015610b8057826001600160a01b031660c98281548110610b4b57610b4b610fec565b6000918252602090912001546001600160a01b031603610b6e5750600192915050565b80610b7881611018565b915050610b24565b50600092915050565b60975460ff16156103bc5760405162461bcd60e51b815260206004820152601060248201526f14185d5cd8589b194e881c185d5cd95960821b6044820152606401610457565b600260015403610c215760405162461bcd60e51b815260206004820152601f60248201527f5265656e7472616e637947756172643a207265656e7472616e742063616c6c006044820152606401610457565b6002600155565b60018055565b60975460ff166103bc5760405162461bcd60e51b815260206004820152601460248201527314185d5cd8589b194e881b9bdd081c185d5cd95960621b6044820152606401610457565b600054610100900460ff16610c9e5760405162461bcd60e51b8152600401610457906111e1565b6103bc33610a91565b600054610100900460ff16610c285760405162461bcd60e51b8152600401610457906111e1565b828054828255906000526020600020908101928215610d23579160200282015b82811115610d2357825182546001600160a01b0319166001600160a01b03909116178255602090920191600190910190610cee565b50610d2f929150610d33565b5090565b5b80821115610d2f5760008155600101610d34565b600060208284031215610d5a57600080fd5b5035919050565b6001600160a01b03811681146106ef57600080fd5b8035610d8181610d61565b919050565b60008060408385031215610d9957600080fd5b823591506020830135610dab81610d61565b809150509250929050565b634e487b7160e01b600052604160045260246000fd5b60008060408385031215610ddf57600080fd5b823567ffffffffffffffff80821115610df757600080fd5b818501915085601f830112610e0b57600080fd5b8135602082821115610e1f57610e1f610db6565b8160051b604051601f19603f83011681018181108682111715610e4457610e44610db6565b604052928352818301935084810182019289841115610e6257600080fd5b948201945b83861015610e8757610e7886610d76565b85529482019493820193610e67565b9997909101359750505050505050565b60018060a01b0385168152600060208581840152841515604084015260806060840152835180608085015260005b81811015610ee15785810183015185820160a001528201610ec5565b50600060a0828601015260a0601f19601f8301168501019250505095945050505050565b60008060008060608587031215610f1b57600080fd5b8435610f2681610d61565b935060208501359250604085013567ffffffffffffffff80821115610f4a57600080fd5b818701915087601f830112610f5e57600080fd5b813581811115610f6d57600080fd5b886020828501011115610f7f57600080fd5b95989497505060200194505050565b600060208284031215610fa057600080fd5b8135610fab81610d61565b9392505050565b600181811c90821680610fc657607f821691505b602082108103610fe657634e487b7160e01b600052602260045260246000fd5b50919050565b634e487b7160e01b600052603260045260246000fd5b634e487b7160e01b600052601160045260246000fd5b60006001820161102a5761102a611002565b5060010190565b601f82111561051b57600081815260208120601f850160051c810160208610156110585750805b601f850160051c820191505b8181101561107757828155600101611064565b505050505050565b815167ffffffffffffffff81111561109957611099610db6565b6110ad816110a78454610fb2565b84611031565b602080601f8311600181146110e257600084156110ca5750858301515b600019600386901b1c1916600185901b178555611077565b600085815260208120601f198616915b82811015611111578886015182559484019460019091019084016110f2565b508582101561112f5787850151600019600388901b60f8161c191681555b5050505050600190811b01905550565b8082018082111561115257611152611002565b92915050565b8181038181111561115257611152611002565b600080835461117981610fb2565b6001828116801561119157600181146111a6576111d5565b60ff19841687528215158302870194506111d5565b8760005260208060002060005b858110156111cc5781548a8201529084019082016111b3565b50505082870194505b50929695505050505050565b6020808252602b908201527f496e697469616c697a61626c653a20636f6e7472616374206973206e6f74206960408201526a6e697469616c697a696e6760a81b60608201526080019056fea264697066735822122053eb0ddada4af4e46dfd4fa046c1c971ec40cbdcb7e131530c93b2ab1405f22564736f6c63430008140033",
  "devdoc": {
    "author": "eludius18",
    "events": {
      "Initialized(uint8)": {
        "details": "Triggered when the contract has been initialized or reinitialized."
      },
      "Paused(address)": {
        "details": "Emitted when the pause is triggered by `account`."
      },
      "Unpaused(address)": {
        "details": "Emitted when the pause is lifted by `account`."
      }
    },
    "kind": "dev",
    "methods": {
      "owner()": {
        "details": "Returns the address of the current owner."
      },
      "paused()": {
        "details": "Returns true if the contract is paused, and false otherwise."
      },
      "renounceOwnership()": {
        "details": "Leaves the contract without owner. It will not be possible to call `onlyOwner` functions. Can only be called by the current owner. NOTE: Renouncing ownership will leave the contract without an owner, thereby disabling any functionality that is only available to the owner."
      },
      "transferOwnership(address)": {
        "details": "Transfers ownership of the contract to a new account (`newOwner`). Can only be called by the current owner."
      }
    },
    "title": "MultiSig Wallet",
    "version": 1
  },
  "userdoc": {
    "kind": "user",
    "methods": {},
    "notice": "This Smart Contract is a MultiSig Wallet",
    "version": 1
  },
  "storageLayout": {
    "storage": [
      {
        "astId": 139,
        "contract": "contracts/MultiSig.sol:MultiSig",
        "label": "_initialized",
        "offset": 0,
        "slot": "0",
        "type": "t_uint8"
      },
      {
        "astId": 142,
        "contract": "contracts/MultiSig.sol:MultiSig",
        "label": "_initializing",
        "offset": 1,
        "slot": "0",
        "type": "t_bool"
      },
      {
        "astId": 444,
        "contract": "contracts/MultiSig.sol:MultiSig",
        "label": "_status",
        "offset": 0,
        "slot": "1",
        "type": "t_uint256"
      },
      {
        "astId": 513,
        "contract": "contracts/MultiSig.sol:MultiSig",
        "label": "__gap",
        "offset": 0,
        "slot": "2",
        "type": "t_array(t_uint256)49_storage"
      },
      {
        "astId": 1610,
        "contract": "contracts/MultiSig.sol:MultiSig",
        "label": "__gap",
        "offset": 0,
        "slot": "51",
        "type": "t_array(t_uint256)50_storage"
      },
      {
        "astId": 11,
        "contract": "contracts/MultiSig.sol:MultiSig",
        "label": "_owner",
        "offset": 0,
        "slot": "101",
        "type": "t_address"
      },
      {
        "astId": 131,
        "contract": "contracts/MultiSig.sol:MultiSig",
        "label": "__gap",
        "offset": 0,
        "slot": "102",
        "type": "t_array(t_uint256)49_storage"
      },
      {
        "astId": 323,
        "contract": "contracts/MultiSig.sol:MultiSig",
        "label": "_paused",
        "offset": 0,
        "slot": "151",
        "type": "t_bool"
      },
      {
        "astId": 428,
        "contract": "contracts/MultiSig.sol:MultiSig",
        "label": "__gap",
        "offset": 0,
        "slot": "152",
        "type": "t_array(t_uint256)49_storage"
      },
      {
        "astId": 1627,
        "contract": "contracts/MultiSig.sol:MultiSig",
        "label": "owners",
        "offset": 0,
        "slot": "201",
        "type": "t_array(t_address)dyn_storage"
      },
      {
        "astId": 1629,
        "contract": "contracts/MultiSig.sol:MultiSig",
        "label": "transactionCount",
        "offset": 0,
        "slot": "202",
        "type": "t_uint256"
      },
      {
        "astId": 1631,
        "contract": "contracts/MultiSig.sol:MultiSig",
        "label": "required",
        "offset": 0,
        "slot": "203",
        "type": "t_uint256"
      },
      {
        "astId": 1649,
        "contract": "contracts/MultiSig.sol:MultiSig",
        "label": "transactions",
        "offset": 0,
        "slot": "204",
        "type": "t_mapping(t_uint256,t_struct(Transaction)1644_storage)"
      },
      {
        "astId": 1655,
        "contract": "contracts/MultiSig.sol:MultiSig",
        "label": "confirmations",
        "offset": 0,
        "slot": "205",
        "type": "t_mapping(t_uint256,t_mapping(t_address,t_bool))"
      }
    ],
    "types": {
      "t_address": {
        "encoding": "inplace",
        "label": "address",
        "numberOfBytes": "20"
      },
      "t_address_payable": {
        "encoding": "inplace",
        "label": "address payable",
        "numberOfBytes": "20"
      },
      "t_array(t_address)dyn_storage": {
        "base": "t_address",
        "encoding": "dynamic_array",
        "label": "address[]",
        "numberOfBytes": "32"
      },
      "t_array(t_uint256)49_storage": {
        "base": "t_uint256",
        "encoding": "inplace",
        "label": "uint256[49]",
        "numberOfBytes": "1568"
      },
      "t_array(t_uint256)50_storage": {
        "base": "t_uint256",
        "encoding": "inplace",
        "label": "uint256[50]",
        "numberOfBytes": "1600"
      },
      "t_bool": {
        "encoding": "inplace",
        "label": "bool",
        "numberOfBytes": "1"
      },
      "t_bytes_storage": {
        "encoding": "bytes",
        "label": "bytes",
        "numberOfBytes": "32"
      },
      "t_mapping(t_address,t_bool)": {
        "encoding": "mapping",
        "key": "t_address",
        "label": "mapping(address => bool)",
        "numberOfBytes": "32",
        "value": "t_bool"
      },
      "t_mapping(t_uint256,t_mapping(t_address,t_bool))": {
        "encoding": "mapping",
        "key": "t_uint256",
        "label": "mapping(uint256 => mapping(address => bool))",
        "numberOfBytes": "32",
        "value": "t_mapping(t_address,t_bool)"
      },
      "t_mapping(t_uint256,t_struct(Transaction)1644_storage)": {
        "encoding": "mapping",
        "key": "t_uint256",
        "label": "mapping(uint256 => struct MultiSig.Transaction)",
        "numberOfBytes": "32",
        "value": "t_struct(Transaction)1644_storage"
      },
      "t_struct(Transaction)1644_storage": {
        "encoding": "inplace",
        "label": "struct MultiSig.Transaction",
        "members": [
          {
            "astId": 1637,
            "contract": "contracts/MultiSig.sol:MultiSig",
            "label": "destination",
            "offset": 0,
            "slot": "0",
            "type": "t_address_payable"
          },
          {
            "astId": 1639,
            "contract": "contracts/MultiSig.sol:MultiSig",
            "label": "value",
            "offset": 0,
            "slot": "1",
            "type": "t_uint256"
          },
          {
            "astId": 1641,
            "contract": "contracts/MultiSig.sol:MultiSig",
            "label": "executed",
            "offset": 0,
            "slot": "2",
            "type": "t_bool"
          },
          {
            "astId": 1643,
            "contract": "contracts/MultiSig.sol:MultiSig",
            "label": "data",
            "offset": 0,
            "slot": "3",
            "type": "t_bytes_storage"
          }
        ],
        "numberOfBytes": "128"
      },
      "t_uint256": {
        "encoding": "inplace",
        "label": "uint256",
        "numberOfBytes": "32"
      },
      "t_uint8": {
        "encoding": "inplace",
        "label": "uint8",
        "numberOfBytes": "1"
      }
    }
  }
}