{
  "address": "0x5FbDB2315678afecb367f032d93F642f64180aa3",
  "abi": [
    {
      "inputs": [
        {
          "internalType": "address[]",
          "name": "_owners",
          "type": "address[]"
        },
        {
          "internalType": "uint256",
          "name": "_confirmations",
          "type": "uint256"
        }
      ],
      "stateMutability": "nonpayable",
      "type": "constructor"
    },
    {
      "inputs": [
        {
          "internalType": "address payable",
          "name": "destination",
          "type": "address"
        },
        {
          "internalType": "uint256",
          "name": "value",
          "type": "uint256"
        },
        {
          "internalType": "bytes",
          "name": "data",
          "type": "bytes"
        }
      ],
      "name": "addTransaction",
      "outputs": [
        {
          "internalType": "uint256",
          "name": "",
          "type": "uint256"
        }
      ],
      "stateMutability": "nonpayable",
      "type": "function"
    },
    {
      "inputs": [
        {
          "internalType": "uint256",
          "name": "transactionId",
          "type": "uint256"
        }
      ],
      "name": "confirmTransaction",
      "outputs": [],
      "stateMutability": "nonpayable",
      "type": "function"
    },
    {
      "inputs": [
        {
          "internalType": "uint256",
          "name": "",
          "type": "uint256"
        },
        {
          "internalType": "address",
          "name": "",
          "type": "address"
        }
      ],
      "name": "confirmations",
      "outputs": [
        {
          "internalType": "bool",
          "name": "",
          "type": "bool"
        }
      ],
      "stateMutability": "view",
      "type": "function"
    },
    {
      "inputs": [
        {
          "internalType": "uint256",
          "name": "transactionId",
          "type": "uint256"
        }
      ],
      "name": "executeTransaction",
      "outputs": [],
      "stateMutability": "nonpayable",
      "type": "function"
    },
    {
      "inputs": [
        {
          "internalType": "uint256",
          "name": "transactionId",
          "type": "uint256"
        }
      ],
      "name": "getConfirmationsCount",
      "outputs": [
        {
          "internalType": "uint256",
          "name": "",
          "type": "uint256"
        }
      ],
      "stateMutability": "view",
      "type": "function"
    },
    {
      "inputs": [
        {
          "internalType": "uint256",
          "name": "transactionId",
          "type": "uint256"
        }
      ],
      "name": "isConfirmed",
      "outputs": [
        {
          "internalType": "bool",
          "name": "",
          "type": "bool"
        }
      ],
      "stateMutability": "view",
      "type": "function"
    },
    {
      "inputs": [
        {
          "internalType": "uint256",
          "name": "",
          "type": "uint256"
        }
      ],
      "name": "owners",
      "outputs": [
        {
          "internalType": "address",
          "name": "",
          "type": "address"
        }
      ],
      "stateMutability": "view",
      "type": "function"
    },
    {
      "inputs": [],
      "name": "required",
      "outputs": [
        {
          "internalType": "uint256",
          "name": "",
          "type": "uint256"
        }
      ],
      "stateMutability": "view",
      "type": "function"
    },
    {
      "inputs": [
        {
          "internalType": "address payable",
          "name": "dest",
          "type": "address"
        },
        {
          "internalType": "uint256",
          "name": "value",
          "type": "uint256"
        },
        {
          "internalType": "bytes",
          "name": "data",
          "type": "bytes"
        }
      ],
      "name": "submitTransaction",
      "outputs": [],
      "stateMutability": "nonpayable",
      "type": "function"
    },
    {
      "inputs": [],
      "name": "transactionCount",
      "outputs": [
        {
          "internalType": "uint256",
          "name": "",
          "type": "uint256"
        }
      ],
      "stateMutability": "view",
      "type": "function"
    },
    {
      "inputs": [
        {
          "internalType": "uint256",
          "name": "",
          "type": "uint256"
        }
      ],
      "name": "transactions",
      "outputs": [
        {
          "internalType": "address payable",
          "name": "destination",
          "type": "address"
        },
        {
          "internalType": "uint256",
          "name": "value",
          "type": "uint256"
        },
        {
          "internalType": "bool",
          "name": "executed",
          "type": "bool"
        },
        {
          "internalType": "bytes",
          "name": "data",
          "type": "bytes"
        }
      ],
      "stateMutability": "view",
      "type": "function"
    },
    {
      "stateMutability": "payable",
      "type": "receive"
    }
  ],
  "transactionHash": "0x8b7e34ccb5f43af0c86ed311e7a7201dab1bc1caf5724108fe52f1c3d77cd5ef",
  "args": [
    [
      "0xf39Fd6e51aad88F6F4ce6aB8827279cffFb92266",
      "0x70997970C51812dc3A010C7d01b50e0d17dc79C8"
    ],
    2
  ],
  "numDeployments": 1,
  "solcInputHash": "5d0c69efbdea334f7f94e4af24e7e0bb",
  "bytecode": "0x60806040523480156200001157600080fd5b5060405162000c5b38038062000c5b833981016040819052620000349162000134565b60008251116200004357600080fd5b600081116200005157600080fd5b81518111156200006057600080fd5b81516200007590600090602085019062000080565b50600255506200020e565b828054828255906000526020600020908101928215620000d8579160200282015b82811115620000d857825182546001600160a01b0319166001600160a01b03909116178255602090920191600190910190620000a1565b50620000e6929150620000ea565b5090565b5b80821115620000e65760008155600101620000eb565b634e487b7160e01b600052604160045260246000fd5b80516001600160a01b03811681146200012f57600080fd5b919050565b600080604083850312156200014857600080fd5b82516001600160401b03808211156200016057600080fd5b818501915085601f8301126200017557600080fd5b81516020828211156200018c576200018c62000101565b8160051b604051601f19603f83011681018181108682111715620001b457620001b462000101565b604052928352818301935084810182019289841115620001d357600080fd5b948201945b83861015620001fc57620001ec8662000117565b85529482019493820193620001d8565b97909101519698969750505050505050565b610a3d806200021e6000396000f3fe6080604052600436106100a05760003560e01c8063bce800e511610064578063bce800e5146101a8578063c01a8c84146101c8578063c6427474146101ea578063dc8452cd1461020a578063ec096f8d14610220578063ee22610b1461024057600080fd5b8063025e7c27146100ac5780633411c81c146100e9578063784547a7146101345780639ace38c214610154578063b77bf6001461018457600080fd5b366100a757005b600080fd5b3480156100b857600080fd5b506100cc6100c736600461066c565b610260565b6040516001600160a01b0390911681526020015b60405180910390f35b3480156100f557600080fd5b5061012461010436600461069a565b600460209081526000928352604080842090915290825290205460ff1681565b60405190151581526020016100e0565b34801561014057600080fd5b5061012461014f36600461066c565b61028a565b34801561016057600080fd5b5061017461016f36600461066c565b6102a0565b6040516100e094939291906106ca565b34801561019057600080fd5b5061019a60015481565b6040519081526020016100e0565b3480156101b457600080fd5b5061019a6101c336600461066c565b610362565b3480156101d457600080fd5b506101e86101e336600461066c565b6103ed565b005b3480156101f657600080fd5b506101e8610205366004610738565b61043d565b34801561021657600080fd5b5061019a60025481565b34801561022c57600080fd5b5061019a61023b366004610738565b61045d565b34801561024c57600080fd5b506101e861025b36600461066c565b610559565b6000818154811061027057600080fd5b6000918252602090912001546001600160a01b0316905081565b600060025461029883610362565b101592915050565b600360208190526000918252604090912080546001820154600283015493830180546001600160a01b0390931694919360ff909216926102df906107c1565b80601f016020809104026020016040519081016040528092919081815260200182805461030b906107c1565b80156103585780601f1061032d57610100808354040283529160200191610358565b820191906000526020600020905b81548152906001019060200180831161033b57829003601f168201915b5050505050905084565b60008060005b6000548110156103e657600460008581526020019081526020016000206000808381548110610399576103996107fb565b60009182526020808320909101546001600160a01b0316835282019290925260400190205460ff16156103d457816103d081610827565b9250505b806103de81610827565b915050610368565b5092915050565b6103f633610603565b6103ff57600080fd5b60008181526004602090815260408083203384529091529020805460ff1916600117905561042c8161028a565b1561043a5761043a81610559565b50565b600061044b8585858561045d565b9050610456816103ed565b5050505050565b60006040518060800160405280866001600160a01b0316815260200185815260200160001515815260200184848080601f016020809104026020016040519081016040528093929190818152602001838380828437600092018290525093909452505060018054825260036020818152604093849020865181546001600160a01b0319166001600160a01b0390911617815590860151928101929092559184015160028201805460ff191691151591909117905560608401519092509082019061052790826108a5565b50905050600180600082825461053d9190610965565b909155505060018054610550919061097e565b95945050505050565b6105628161028a565b61056b57600080fd5b60008181526003602081905260408083208054600182015492519194936001600160a01b0390911692916105a191860190610991565b60006040518083038185875af1925050503d80600081146105de576040519150601f19603f3d011682016040523d82523d6000602084013e6105e3565b606091505b50509050806105f157600080fd5b50600201805460ff1916600117905550565b6000805b60005481101561066357826001600160a01b03166000828154811061062e5761062e6107fb565b6000918252602090912001546001600160a01b0316036106515750600192915050565b8061065b81610827565b915050610607565b50600092915050565b60006020828403121561067e57600080fd5b5035919050565b6001600160a01b038116811461043a57600080fd5b600080604083850312156106ad57600080fd5b8235915060208301356106bf81610685565b809150509250929050565b60018060a01b0385168152600060208581840152841515604084015260806060840152835180608085015260005b818110156107145785810183015185820160a0015282016106f8565b50600060a0828601015260a0601f19601f8301168501019250505095945050505050565b6000806000806060858703121561074e57600080fd5b843561075981610685565b935060208501359250604085013567ffffffffffffffff8082111561077d57600080fd5b818701915087601f83011261079157600080fd5b8135818111156107a057600080fd5b8860208285010111156107b257600080fd5b95989497505060200194505050565b600181811c908216806107d557607f821691505b6020821081036107f557634e487b7160e01b600052602260045260246000fd5b50919050565b634e487b7160e01b600052603260045260246000fd5b634e487b7160e01b600052601160045260246000fd5b60006001820161083957610839610811565b5060010190565b634e487b7160e01b600052604160045260246000fd5b601f8211156108a057600081815260208120601f850160051c8101602086101561087d5750805b601f850160051c820191505b8181101561089c57828155600101610889565b5050505b505050565b815167ffffffffffffffff8111156108bf576108bf610840565b6108d3816108cd84546107c1565b84610856565b602080601f83116001811461090857600084156108f05750858301515b600019600386901b1c1916600185901b17855561089c565b600085815260208120601f198616915b8281101561093757888601518255948401946001909101908401610918565b50858210156109555787850151600019600388901b60f8161c191681555b5050505050600190811b01905550565b8082018082111561097857610978610811565b92915050565b8181038181111561097857610978610811565b600080835461099f816107c1565b600182811680156109b757600181146109cc576109fb565b60ff19841687528215158302870194506109fb565b8760005260208060002060005b858110156109f25781548a8201529084019082016109d9565b50505082870194505b5092969550505050505056fea26469706673582212204a358b637a5d70a762b3b0827ea176b82c69a5ffb44a8e8c9d7816b69ba4ea8d64736f6c63430008120033",
  "devdoc": {
    "kind": "dev",
    "methods": {},
    "version": 1
  },
  "userdoc": {
    "kind": "user",
    "methods": {},
    "version": 1
  },
  "storageLayout": {
    "storage": [
      {
        "astId": 4,
        "contract": "contracts/MultiSig.sol:MultiSig",
        "label": "owners",
        "offset": 0,
        "slot": "0",
        "type": "t_array(t_address)dyn_storage"
      },
      {
        "astId": 6,
        "contract": "contracts/MultiSig.sol:MultiSig",
        "label": "transactionCount",
        "offset": 0,
        "slot": "1",
        "type": "t_uint256"
      },
      {
        "astId": 8,
        "contract": "contracts/MultiSig.sol:MultiSig",
        "label": "required",
        "offset": 0,
        "slot": "2",
        "type": "t_uint256"
      },
      {
        "astId": 22,
        "contract": "contracts/MultiSig.sol:MultiSig",
        "label": "transactions",
        "offset": 0,
        "slot": "3",
        "type": "t_mapping(t_uint256,t_struct(Transaction)17_storage)"
      },
      {
        "astId": 28,
        "contract": "contracts/MultiSig.sol:MultiSig",
        "label": "confirmations",
        "offset": 0,
        "slot": "4",
        "type": "t_mapping(t_uint256,t_mapping(t_address,t_bool))"
      }
    ],
    "types": {
      "t_address": {
        "encoding": "inplace",
        "label": "address",
        "numberOfBytes": "20"
      },
      "t_address_payable": {
        "encoding": "inplace",
        "label": "address payable",
        "numberOfBytes": "20"
      },
      "t_array(t_address)dyn_storage": {
        "base": "t_address",
        "encoding": "dynamic_array",
        "label": "address[]",
        "numberOfBytes": "32"
      },
      "t_bool": {
        "encoding": "inplace",
        "label": "bool",
        "numberOfBytes": "1"
      },
      "t_bytes_storage": {
        "encoding": "bytes",
        "label": "bytes",
        "numberOfBytes": "32"
      },
      "t_mapping(t_address,t_bool)": {
        "encoding": "mapping",
        "key": "t_address",
        "label": "mapping(address => bool)",
        "numberOfBytes": "32",
        "value": "t_bool"
      },
      "t_mapping(t_uint256,t_mapping(t_address,t_bool))": {
        "encoding": "mapping",
        "key": "t_uint256",
        "label": "mapping(uint256 => mapping(address => bool))",
        "numberOfBytes": "32",
        "value": "t_mapping(t_address,t_bool)"
      },
      "t_mapping(t_uint256,t_struct(Transaction)17_storage)": {
        "encoding": "mapping",
        "key": "t_uint256",
        "label": "mapping(uint256 => struct MultiSig.Transaction)",
        "numberOfBytes": "32",
        "value": "t_struct(Transaction)17_storage"
      },
      "t_struct(Transaction)17_storage": {
        "encoding": "inplace",
        "label": "struct MultiSig.Transaction",
        "members": [
          {
            "astId": 10,
            "contract": "contracts/MultiSig.sol:MultiSig",
            "label": "destination",
            "offset": 0,
            "slot": "0",
            "type": "t_address_payable"
          },
          {
            "astId": 12,
            "contract": "contracts/MultiSig.sol:MultiSig",
            "label": "value",
            "offset": 0,
            "slot": "1",
            "type": "t_uint256"
          },
          {
            "astId": 14,
            "contract": "contracts/MultiSig.sol:MultiSig",
            "label": "executed",
            "offset": 0,
            "slot": "2",
            "type": "t_bool"
          },
          {
            "astId": 16,
            "contract": "contracts/MultiSig.sol:MultiSig",
            "label": "data",
            "offset": 0,
            "slot": "3",
            "type": "t_bytes_storage"
          }
        ],
        "numberOfBytes": "128"
      },
      "t_uint256": {
        "encoding": "inplace",
        "label": "uint256",
        "numberOfBytes": "32"
      }
    }
  }
}